:020000040000fa
:080000000002040000000000f2
:020000040000fa
:040008004c030000a5
:020000040000fa
:04000c004c030000a1
:020000040000fa
:040010004c0300009d
:020000040000fa
:040014004c03000099
:020000040000fa
:040018004c03000095
:020000040000fa
:04001c004c03000091
:020000040000fa
:040020004c0300008d
:020000040000fa
:040024004c03000089
:020000040000fa
:040028004c03000085
:020000040000fa
:04002c004c03000081
:020000040000fa
:040030004c0300007d
:020000040000fa
:040034004c03000079
:020000040000fa
:040038004c03000075
:020000040000fa
:04003c004c03000071
:020000040000fa
:040040004c0300006d
:020000040000fa
:040044004c03000069
:020000040000fa
:040048004c03000065
:020000040000fa
:04004c004c03000061
:020000040000fa
:040050004c0300005d
:020000040000fa
:04005400146b000029
:020000040000fa
:04005800406b0000f9
:020000040000fa
:04005c004c03000051
:020000040000fa
:040060004c0300004d
:020000040000fa
:040064004c03000049
:020000040000fa
:040068004c03000045
:020000040000fa
:04006c004c03000041
:020000040000fa
:040070004c0300003d
:020000040000fa
:040074004c03000039
:020000040000fa
:040078004c03000035
:020000040000fa
:04007c004c03000031
:020000040000fa
:040080004c0300002d
:020000040000fa
:040084004c03000029
:020000040000fa
:040088004c03000025
:020000040000fa
:04008c004c03000021
:020000040000fa
:040090004c0300001d
:020000040000fa
:040094004c03000019
:020000040000fa
:040098004c03000015
:020000040000fa
:04009c004c03000011
:020000040000fa
:0400a0004c0300000d
:020000040000fa
:0400a4004c03000009
:020000040000fa
:0400a8004c03000005
:020000040000fa
:0400ac004c03000001
:020000040000fa
:0400b0004c030000fd
:020000040000fa
:0400b4004c030000f9
:020000040000fa
:0400b8004c030000f5
:020000040000fa
:0400bc004c030000f1
:020000040000fa
:0400c0004c030000ed
:020000040000fa
:0400c4004c030000e9
:020000040000fa
:0400c8004c030000e5
:020000040000fa
:0400cc004c030000e1
:020000040000fa
:0400d0004c030000dd
:020000040000fa
:0400d4004c030000d9
:020000040000fa
:0400d8004c030000d5
:020000040000fa
:0400dc004c030000d1
:020000040000fa
:0400e0004c030000cd
:020000040000fa
:0400e4004c030000c9
:020000040000fa
:0400e8004c030000c5
:020000040000fa
:0400ec004c030000c1
:020000040000fa
:0400f0004c030000bd
:020000040000fa
:0400f4004c030000b9
:020000040000fa
:0400f8004c030000b5
:020000040000fa
:0400fc004c030000b1
:020000040000fa
:040100004c030000ac
:020000040000fa
:040104004c030000a8
:020000040000fa
:040108004c030000a4
:020000040000fa
:04010c004c030000a0
:020000040000fa
:040110004c0300009c
:020000040000fa
:040114004c03000098
:020000040000fa
:040118004c03000094
:020000040000fa
:04011c004c03000090
:020000040000fa
:040120004c0300008c
:020000040000fa
:040124004c03000088
:020000040000fa
:040128004c03000084
:020000040000fa
:04012c004c03000080
:020000040000fa
:040130004c0300007c
:020000040000fa
:040134004c03000078
:020000040000fa
:040138004c03000074
:020000040000fa
:04013c004c03000070
:020000040000fa
:040140004c0300006c
:020000040000fa
:040144004c03000068
:020000040000fa
:040148004c03000064
:020000040000fa
:040208004c030000a3
:020000040000fa
:04020c004c0300009f
:020000040000fa
:040210004c0300009b
:020000040000fa
:040214004c03000097
:020000040000fa
:040218004c03000093
:020000040000fa
:04021c004c0300008f
:020000040000fa
:040220004c0300008b
:020000040000fa
:040224004c03000087
:020000040000fa
:040228004c03000083
:020000040000fa
:04022c004c0300007f
:020000040000fa
:040230004c0300007b
:020000040000fa
:040234004c03000077
:020000040000fa
:040238004c03000073
:020000040000fa
:04023c004c0300006f
:020000040000fa
:040240004c0300006b
:020000040000fa
:040244004c03000067
:020000040000fa
:040248004c03000063
:020000040000fa
:04024c004c0300005f
:020000040000fa
:040250004c0300005b
:020000040000fa
:040254004c03000057
:020000040000fa
:040258004c03000053
:020000040000fa
:04025c004c0300004f
:020000040000fa
:040260004c0300004b
:020000040000fa
:040264004c03000047
:020000040000fa
:040268004c03000043
:020000040000fa
:04026c004c0300003f
:020000040000fa
:040270004c0300003b
:020000040000fa
:040274004c03000037
:020000040000fa
:040278004c03000033
:020000040000fa
:04027c004c0300002f
:020000040000fa
:040280004c0300002b
:020000040000fa
:040284004c03000027
:020000040000fa
:040288004c03000023
:020000040000fa
:04028c004c0300001f
:020000040000fa
:040290004c0300001b
:020000040000fa
:040294004c03000017
:020000040000fa
:040298004c03000013
:020000040000fa
:04029c004c0300000f
:020000040000fa
:0402a0004c0300000b
:020000040000fa
:0402a4004c03000007
:020000040000fa
:0402a8004c03000003
:020000040000fa
:0402ac004c030000ff
:020000040000fa
:0402b0004c030000fb
:020000040000fa
:0402b4004c030000f7
:020000040000fa
:0402b8004c030000f3
:020000040000fa
:0402bc004c030000ef
:020000040000fa
:0402c0004c030000eb
:020000040000fa
:0402c4004c030000e7
:020000040000fa
:0402c8004c030000e3
:020000040000fa
:0402cc004c030000df
:020000040000fa
:0402d0004c030000db
:020000040000fa
:0402d4004c030000d7
:020000040000fa
:0402d8004c030000d3
:020000040000fa
:0402dc004c030000cf
:020000040000fa
:0402e0004c030000cb
:020000040000fa
:0402e4004c030000c7
:020000040000fa
:0402e8004c030000c3
:020000040000fa
:0402ec004c030000bf
:020000040000fa
:0402f0004c030000bb
:020000040000fa
:0402f4004c030000b7
:020000040000fa
:0402f8004c030000b3
:020000040000fa
:0402fc004c030000af
:020000040000fa
:040300004c030000aa
:020000040000fa
:040304004c030000a6
:020000040000fa
:040308004c030000a2
:020000040000fa
:04030c004c0300009e
:020000040000fa
:040310004c0300009a
:020000040000fa
:040314004c03000096
:020000040000fa
:040318004c03000092
:020000040000fa
:04031c004c0300008e
:020000040000fa
:040320004c0300008a
:020000040000fa
:040324004c03000086
:020000040000fa
:040328004c03000082
:020000040000fa
:04032c004c0300007e
:020000040000fa
:040330004c0300007a
:020000040000fa
:040334004c03000076
:020000040000fa
:040338004c03000072
:020000040000fa
:04033c004c0300006e
:020000040000fa
:040340004c0300006a
:020000040000fa
:040344004c03000066
:020000040000fa
:040348004c03000062
:020000040000fa
:10040000cfa221000e7f22000e0188000000000014
:10041000000020000000e000020032000001200087
:10042000200288000c000700e0e227000100200005
:1004300011000700000020000000e0000200320070
:1004400000000200000000002e7f020000000000fb
:100450000040da000000fe004440a900002b20000c
:100460000000e0000300320000002000a00188002e
:100470004440a80000000600910188008000780038
:100480000000eb0015003700e280400032a0b4000d
:100490009101ba00e280400032a0b4009102ba009b
:1004a000e280400032a0b4000002eb00472bde00e7
:1004b000f507b200602ce10004003a000059eb009f
:1004c0008301e900fdff3e00040037006128e100e0
:1004d000010032000082eb000b00070011c3ba00dc
:1004e0001101ba000604e00003003a000200e00037
:1004f000e5ff3a0000000600f607b200960188000a
:1005000082007800f5ff37003159ba008301e90015
:100510000c0032002159ba008301e90008003200c2
:100520000400e00003003a00e280400032a0b40082
:10053000f5ff370011d9ba008301e900faff3a004c
:100540008100e800e180400032a0b4000000060015
:10055000000000000000000000000000000000009b
:10056000000000000000000000000000000000008b
:10057000000000000000000000000000000000007b
:10058000000000000000000000000000000000006b
:10059000000000000000000000000000000000005b
:1005a000000000000000000000000000000000004b
:1005b000000000000000000000000000000000003b
:1005c000000000000000000000000000000000002b
:1005d000000000000000000000000000000000001b
:1005e000000000000000000000000000000000000b
:1005f00000000000000000000000000000000000fb
:1006000000000000000000000000000000000000ea
:1006100000000000000000000000000000000000da
:1006200000000000000000000000000000000000ca
:1006300000000000000000000000000000000000ba
:1006400000000000000000000000000000000000aa
:10065000000000000000000000000000000000009a
:10066000000000000000000000000000000000008a
:10067000000000000000000000000000000000007a
:10068000000000000000000000000000000000006a
:1006900000000000000000000040da000000fe0042
:1006a00003f0a200889fbe008a9fbe008c1f7800c6
:1006b0004a010700510133006450e1004f0032004d
:1006c0006420e1005200320003826c0007003b000e
:1006d0000905d0000306d000820f54000c065d000f
:1006e0000200390002003200890178000306780018
:1006f0008582550004003d000003fd008103fd00dc
:100700008502ea008b854200840f720002003b00e4
:1007100060001000e08018006011b8000005eb00d8
:100720007a28e1000a00390006007800c75ddd0084
:10073000f707b200878075002d00370082817100b5
:100740000a017800610560008180d1000080d3003b
:100750008502e900f9ff3b00060440008784480059
:1007600002003b0060041400e0841c000988a30020
:10077000070032008a81710082817100610164008a
:100780008904d1000884d3008b05e80017003700e6
:100790000978a30013003a000b00e00013003400b6
:1007a0008b05e9000804440089844c000a44740065
:1007b0000978a3000d003a000b00e00007003400a8
:1007c0008b05e9000804440089844c0001003a00cc
:1007d0000b0020000978a300f7ff32000001eb00b6
:1007e00002003700828171000a017800c000070012
:1007f0000cf0a70001f0a000090137006420e1001f
:1008000002003a00838f6c00090133000801be002a
:100810000200be0002013700889fbe008a9fbe0012
:100820008c1f7800ed000700f400330003866c0095
:100830006450e1002e0032006420e10033003200f9
:100840006150e1002f0032006120e10031003200f0
:1008500085855500eb07b000090020000804200042
:10086000050037000804440089844c000a00310068
:100870000603430087834b000001530081815b0026
:10088000f8ff33000203be000800a0000804440083
:1008900089844c00f6ff3900c639dd0083017300fe
:1008a00001003200130020008904d1000884d30025
:1008b0000998a300050032000800a7000300a0006b
:1008c0008904d1000884d3008b05e8008904d10095
:1008d0000884d3000001eb000281d20084000700ed
:1008e00001f0a1000cf0a70001f0a000cc0037003f
:1008f0006420e100ce0032000801be000200be000c
:10090000f7ff37006120e100c90032006000b80045
:10091000f3ff37000000200001f82700f0ff370048
:10092000140020000e023700f4ff2f000c023700e5
:100930000003be00940007006011b8000470a70017
:1009400007f0a10007f8a30017003a006509b100fd
:100950000d0032000d003500860220000628e1005f
:1009600003003500030028006000b8000200050005
:100970000000400081804800020149008381490055
:100980008502e900faff3a0000000600f88f4200f5
:10099000050034008100d1000080d3008502e8000a
:1009a000fcff3a00000006006011b8008000eb0078
:1009b000000005000001be00730007000470a700de
:1009c00003f0a10003f8a30013003a006509b10089
:1009d00010003200090035006928e10002003500ee
:1009e0000100280000000500000040008180480050
:1009f0008502e900fcff3a0000000600f88f420083
:100a0000050035008100d1000080d3008502e80098
:100a1000fcff3a00000006008000eb00000005002b
:100a20004f89de0082017800e8013700889fbe0010
:100a30008a9fbe000082700004027100048271006f
:100a4000260032000004be000200be006011b800a3
:100a50006b092000950220000182cf000a003900b6
:100a60000541b1000082cf00070039000541b10007
:100a70000982cf00040039000541b1000882cf008f
:100a8000010039000541b100054252001200320058
:100a90000a003b0082817100610164008100d10085
:100aa0000080d3008984d3000884d3008b05e8003c
:100ab0000442e800f7ff3a0007003700080444004a
:100ac00089844c0000004800818048008b05e900c3
:100ad0000442e900f9ff3a00050007004f05be0097
:100ae0004f04be00000006006011b800cfff3700c1
:100af00081002000618055000b003d000b002000ac
:100b000061fe2f000100e1001d00340082817100b0
:100b1000610164008904d1000884d3000000e8006a
:100b2000faff3a00710020006100640003007000c9
:100b3000020060000900320061044400e0844c00bf
:100b40000988a500050032008b05e8006808e1006f
:100b500002003a008904d1000884d300f20f20007b
:100b60000258e10005003d00c75ddd00f907b20055
:100b70008980750008007800000006000bf8270047
:100b80008b00780000000500c70ade00f107b20004
:100b9000f50fb20008003200e1cf4200020032003f
:100ba0000170a00024000500810f700001003200d8
:100bb0000408050044000500810f700002003a009f
:100bc000140005008502e9000000400081c04800d3
:100bd000fcff3b000170a000240005000004be00e3
:100be000e9ff07000003be000405be000200be00ce
:100bf000e5ff0700844f7500000006000200be00fc
:100c00006450e100050036006420e1000200360077
:100c10000968a30001003a000800be000160a000be
:100c20004f0678004f05be004f04be0000000600ce
:100c3000f0ff2f00f1ff2700f9ff3700889fbe006b
:100c40008a9fbe008c1f7800e4ff0700ebff330093
:100c500003866c006450e100240032006420e1004f
:100c6000270032006150e100220032006120e100e3
:100c7000210032008b854200eb07b1000134b8003f
:100c8000003ab8000804420089844a00013ab800da
:100c90000030b8008880400009014a000400330099
:100ca0000000400081804800020149008b05e900f6
:100cb000c909dd008301700001003200130020002b
:100cc000c814de004814dd004709de001200b2003f
:100cd000c808de000884700085ff070001f0a1004d
:100ce0000cf0a70001f0a000cdff37006120e1006b
:100cf000cfff32000801be000200be00f7ff370040
:100d00006150e100fcff3a00c9ff37006022b800e3
:100d1000060220000000d0008180d2000482d200b0
:100d20008582d2000000a0000202520083825a0095
:100d3000030031000202420083824a000000a10049
:100d40000603e900f3ff3a0000000600efff07008a
:100d50000400be0000000600889fbe008a9fbe00ff
:100d600030044200b0844a0030054b0090854b00af
:100d70006000b1000898be000a90be000440e10087
:100d800005c8e10006d0e10007d8e100020031000b
:100d9000680040001008e8004f05be004f04be0088
:100da00000000600889fbe008a9fbe003004be007f
:100db0002005be000418540005985c0006185d006c
:100dc00007985d00110020000440e10005c8e10023
:100dd00006d0e10007d8e100010039008000eb00f7
:100de000108810004f05be004f04be000000060032
:100df0001200fa00889fbe008a9fbe008c9fbe0032
:100e0000e0b79f00f1b79f0082bf9f0093bf9f0094
:100e10000605be000404be000000eb00d0b79f0032
:100e2000c0b79f00b0b79f00a0b79f0090b79f00ca
:100e30000006eb005fb19700cfb097008201410040
:100e40003fb097000200e00004003d0037000700bb
:100e50007e805700c0ff0700030037003300070003
:100e60007e805700cfff0700dfb697000d00e0003f
:100e70000c0035006fb29700ffb297000fbb9700d0
:100e80009fbb970010002000010020006011b800f7
:100e90000002720081827200020373008383730078
:100ea0001b0007000c06e80001042000810f56001b
:100eb000e0ff3a000d00e00004003d000802be0023
:100ec0000a03be007e805700a3ff07005fa89700bb
:100ed0000000e00005003a001fb29700afb2970093
:100ee0003fb39700cfb39700090007006fb097009a
:100ef000ffb097000fb997009fb997004f06be004b
:100f00004f05be004f04be000080fa00000006003e
:100f10000100070000000600a4b79f00b5b79f00be
:100f2000c6b79f00d7b79f00000006004f09de003c
:100f300082817100b3b79f004f01de0081804000c5
:100f400082807000a1b79f008fb097004f09de002c
:100f5000000040000200700090b79f007fa897003b
:100f60004f01de00818040008280700081b79f00c9
:100f70000d0007004f3ade00000040000400700042
:100f8000f0af9f00080007000402420085824a007b
:100f900006034b0087834b00dfff07000802be00fb
:100fa0000a03be00000006002fb29700bfb29700f0
:100fb0004fb39700dfb3970000000600881f78004a
:100fc00018002000881f780089ff07008f87e9003c
:100fd0004f04780000000600801feb0084ff07002c
:100fe0008f87e90000000600889fbe008a9fbe0030
:100ff000e00f5000e08f5800e00f5900e08f5900db
:101000000c003d006044b8006055b800000054007a
:1010100081805c0002015d0083815d00180020007a
:101020001500070008003d00180007000004eb0051
:10103000050037000004eb000f00070002003d0030
:101040001200070018002000dcff07000800e00085
:10105000060032006022b8006033b8000000520081
:1010600081805a0002015b0083815b004f05be0056
:101070004f04be0000000600e00f5200e08f5a004f
:10108000e00f5b00e08f5b00000006006044b800ea
:101090006055b8000402540085825c0006035d00c0
:1010a00087835d0000000600889fbe008a9fbe0007
:1010b0008c1f7800e00f5000e08f5800e00f5900bf
:1010c000e08f59000d003d006044b8006055b80045
:1010d0000000540081805c0002015d0083815d009e
:1010e0001c0020000820e10009a8e1000ab0e1008e
:1010f0000bb8e1000d003d00080037000006eb00d2
:10110000e00f5200e08f5a00e00f5b00e08f5b00c1
:1011100006003d006044b8006055b8000402540069
:1011200085825c0006035d0087835d00aaff0700df
:101130000c00e000060032006022b8006033b80006
:101140000000520081805a0002015b0083815b0035
:101150004f0678004f05be004f04be000000060099
:10116000889fbe008a9fbe00841f78009bfe0700f8
:101170004f00780011003300f0ff2f00838f6c00c8
:1011800006003b00040565000a00a70008003700c0
:1011900009f0a6001000200008003700820f54005c
:1011a000838f5c00030039001000200001003e0026
:1011b0000000200009f0a7000000ea004f05be0073
:1011c0004f04be000000e00000000600881f780009
:1011d000030478000300e00007003d0060001000f9
:1011e000e080180060011900e081190002003b0056
:1011f00001f02d00030037000cfe070008f0a700e7
:0c12000001f0a0004f0478000000060080
:020000040000fa
:10120c000d0a00002800000078000000293e0000b4
:10121c000008000020080000000000002e20000044
:10122c0000200000004300006c7500007463000097
:10123c006820000064690000736500006e670000a0
:10124c00616700006564000021210000210000009e
:10125c00546f000020660000696e00006973000086
:10126c00682000007365000074750000702c00008d
:10127c00207300007461000072740000207500007f
:10128c00702000007468000065200000706f000082
:10129c00776500007220000073750000707000000c
:1012ac006c69000065730000207700006974000011
:1012bc0068200000636f00006d6d0000616e00001f
:1012cc006420000027570000270d00000a000000d2
:1012dc00427500007320000050690000726100002c
:1012ec0074650000207600003300000020630000cd
:1012fc006c6f00006e650000207700002f6400000a
:10130c006966000066650000726500006e7400007e
:10131c002050000049430000004300006f6d0000a6
:10132c006d7500006e6900007479000020460000a5
:10133c00697200006d77000061720000652000008a
:10134c00763700002e300000202d000020670000b2
:10135c006f6f00002e6700006c2f000067430000c9
:10136c007a5100006e570000200000002028000079
:10137c0032340000464a0000363400004741000079
:10138c00303000000034000020000000322000004b
:10139c000041000033000000423400000042000015
:1013ac003500000042380000005500004e4b000094
:1013bc000029000000490000090000004f0900004e
:1013cc0000480000090000004c0900000045000026
:1013dc006e740000657200002072000061770000de
:1013ec0020760000616c000075650000206600002e
:1013fc006f7200002042000052470000003e0000c7
:10140c00001b00005b440000001b00005b000000a0
:10141c00440000001b5b0000430000001b5b00004d
:10142c00324b00000d000000430000001b5b00006d
:10143c003244000000570000617200006e69000029
:10144c006e6700003a2000006e6f000020760000ee
:10145c006f6c00007461000067650000206f000075
:10146c006e20000056700000756c00006c7500005a
:10147c0070200000706900006e000000203d00002c
:10148c0020000000436c00007574000063680000cd
:10149c00206500006e670000616700006564000055
:1014ac002121000021000000565200004547000099
:1014bc00207400006f6f0000206c00006f7700003c
:1014cc002c20000069730000207400006865000087
:1014dc00726500002061000020730000686f00003e
:1014ec00727400003f0000002e2000003c00000041
:1014fc000041000052540000310000001434000080
:10150c00040d00008206000040030000a001000052
:10151c00cf0000007f0000006700000044000000c6
:10152c002200000000000000000000002c01000060
:10153c00000000005802000000000000b004000091
:10154c00000000006009000000000000c012000054
:10155c000000000080250000000000004038000062
:10156c0000000000004b0000000000008070000034
:10157c00000000000096000000000000c0da00002f
:10158c000000000000e100000000000000c20000ac
:10159c000100000000f400000100000000e8000061
:1015ac000300000014340000040d0000820600004b
:1015bc0040030000a0010000cf0000006700000005
:1015cc0044000000220000007f0000003062000098
:1015dc0000300000303000002c00000030300000e3
:1015ec000000000014340000040d0000820600000e
:1015fc0040030000a0010000cf00000067000000c5
:10160c00440000002200000030780000303100005f
:10161c003233000034350000363700003839000012
:10162c0041420000434400004546000020480000b1
:10163c007a000000467200006571000075650000bc
:10164c006e63000069650000732000003c20000000
:10165c00314800007a200000617200006520000013
:10166c006e6f000074200000737500007070000035
:10167c006f72000074650000642e00000000000012
:10168c00436f0000756c0000646e0000277400004e
:10169c00206b000065650000702000007570000074
:1016ac000000000053500000493100000000000011
:1016bc00181c00001d0300000b1300001b00000091
:1016cc00181c00001d000000314100004c530000ac
:1016dc0001420000507600003300000021000000a1
:1016ec000010000000230000000f0000424000002a
:1016fc00400500004102000000000000002900002d
:10170c00002000005700000020520000004900009b
:10171c0032430000310000000808000008080000f7
:10172c00080000000000000042420000494f000089
:10173c003100000052410000573100000000000051
:10174c00003500003f620000610000004f430000c4
:10175c004431000000000000000000000000000008
:020000040000fa
:10176c00881f780013c4800003007800f007b200d3
:10177c000480210064407800f1ccb300814040002b
:10178c00e8cf500018003e000000fb000003b10041
:10179c008300e800f107b20064c1780006cdb30005
:1017ac0086424100e9cf52000c003e008381e800e4
:1017bc006a00b9000201fb00000041000003b10007
:1017cc0083007800f107b20064c178008301e8005f
:1017dc0086424100e9cf5200f5ff360011c4880063
:1017ec004f0478000000060001c3b300814f500085
:1017fc000700320011c0b300408821000148780076
:10180c000000eb004f04780000000600f6ff3700e4
:10181c008300e800f107b20064c1780025c6b3006c
:10182c00854f51001e00320025c4b300854f510076
:10183c001b00320085c7b300854f510038003200c1
:10184c0085c5b300854f51003500320080425100f0
:10185c000000eb00e9cf5200e0ff3e000201fb006c
:10186c0000fd2f00020040008381e80006cdb3008c
:10187c006a00b900000041000003b1008300780049
:10188c00f107b20064c178008301e8008642410090
:10189c00e9cf5200d1ff3e000201fb00f4ff3700fc
:1018ac008380e800f107b20064c1780006cdb30074
:1018bc00864241000000eb00e1cf5200c7ff3e0022
:1018cc00e3814100000040000201fb0002004000e7
:1018dc000003b10083007800f107b20064c1780006
:1018ec008301e80086424100e1cf5200bbff3e007d
:1018fc00000040000201fb00020040000003b100a8
:10190c0083007800f107b20064c178008301e8001d
:10191c0086424100e1cf5200eaff3600afff3700ac
:10192c008381e8000000eb0006cdb300f7cbb300d9
:10193c00f8c9b30083007800f107b20064c17800e5
:10194c0086424100e9cf5200130036008742410025
:10195c00e5cf52000300360088424100e5cf52002b
:10196c009eff3e000254a00002f278004400dd000d
:10197c007005b1000201fb00020040008301e80089
:10198c0083007800f107b20064c178008642410000
:10199c00e9cf5200edff3e004400dd000003b10032
:1019ac000201fb00020040008301e800f4ff370055
:1019bc0011c480000100e800f007b2000280210091
:1019cc00e241780010002000a2c3b30082cf510086
:1019dc0001003200000006008180e800f107b2002f
:1019ec0011c488005eff070011c480008100e9006b
:1019fc00f107b20011c488000000060011c4800079
:101a0c000100e800f007b20002802100e2417800fa
:101a1c000000eb00b2c3b30082cf510001003200d2
:101a2c00000006008180e800f107b20011c48800b4
:101a3c004bff070011c480008100e900f107b200e0
:101a4c0011c488000000060011c480008100e80069
:101a5c00f107b2000080210060c1780080c7b3009c
:101a6c00804f51000f00320040c6b300804f510030
:101a7c000800320020c6b300804f51000b0032002a
:101a8c000040eb0073c7b300834f510003003200da
:101a9c000000060011c488002000050011c4880055
:101aac004000050011c488001000050011c4880016
:101abc003000050010c4800002802100e241780053
:101acc0001c2b30081cf510006003a000000e800cb
:101adc00f007b200e240780083cf5000fbff3200e9
:101aec0010c4880000000600ee874700889fbe00e7
:101afc008a9fbe008c9fbe008e1f78000004be0023
:101b0c000205780003077800dcc2b3008dc7b30070
:101b1c000bcdb30060902800b265020000000000fd
:101b2c000800e0004300350008407800946802008b
:101b3c0000000000c0902800b26502000000000008
:101b4c000000eb00e0b79f00f0b79f00c66a0200f0
:101b5c000000000080407800edcf500016003200ed
:101b6c00edcf50003d003c00e8cf50005600320055
:101b7c00eacf5000100032000bc04000e94f50007b
:101b8c0044003e007fb19700e30f51005a0034002f
:101b9c0070c0b300d46a02000000000043002000b3
:101bac00f3b79f00c66a0200000000008040780076
:101bbc00edcf5000eaff3a0030912800d2650200c8
:101bcc00000000007fb097000000e0002a00320007
:101bdc008000eb000a0034007a805700ffb09700b9
:101bec00010240008000eb006a09b900b000fb0064
:101bfc000103b10082804000840f5000faff3a00cc
:101c0c00818f540002003c00810f55004c003d00b8
:101c1c00b101200080ec20006e7c0200000000006e
:101c2c0060902800b2650200000000000800e0008f
:101c3c00bdff3d00a0902800b2650200000000002e
:101c4c00c0902800b2650200000000000000eb000c
:101c5c00e0b79f00f0b79f00bcff37008ccf50005f
:101c6c00100032008dcf5000c3ff3a000e00e00090
:101c7c00c1ff32000084eb00080078004f077800a9
:101c8c004f06be004f05be004f04be00ef00b10072
:101c9c000000060070c0b300d46a0200000000000f
:101cac00aaff37007fb097000000e000f9ff3a0070
:101cbc000c407800d46a02000000000011002000e3
:101ccc00e1b79f00a1ff3700ffb097000100e000d3
:101cdc0015003a006fb197000200e000edff3200f2
:101cec00f0902800b2650200000000008001eb00bb
:101cfc00e3b79f0095ff37000140780081bf9f003c
:101d0c00d46a0200000000008fb89700814178006f
:101d1c007a8057007fb19700037079000201e800c8
:101d2c00f2b79f0089ff37008100e900f1b79f00ef
:101d3c00f0902800b26502000000000083ff37001d
:101d4c006fb197000200e000090032000104ea00c4
:101d5c00080078004f0778004f06be004f05be0004
:101d6c004f04be00ef00b10000000600c9ff3700b1
:101d7c00010078004f0778004f06be004f05be00eb
:101d8c004f04be00ef00b10000000600c1ff370099
:101d9c000e00fa00889fbe008a9fbe008c9fbe007a
:101dac0011c480008104e900f907b200180020007a
:101dbc00898f50000e0032000b8021008b067800ba
:101dcc006bc07c000004e00005003a000906e80046
:101ddc00fc07b2006d407e000004e00038003a00c1
:101dec008904e900f907b200818f5400f4ff3a002e
:101dfc0070912800d26502000000000071002000e4
:101e0c00107420006e7c0200000000001300200003
:101e1c0008017800830078000000eb0032ff070017
:101e2c008000e800e18f50004700360000004000c1
:101e3c00fa805700e101780003007800f007b20047
:101e4c000b8021006b4178000204e0004800320056
:101e5c0004c480000000eb0084004000f107b200d5
:101e6c0082f578000000e80083004000f107b20022
:101e7c006bc178000204e000f7ff3a000402e900ad
:101e8c00f407b20014c488000482e8000000420089
:101e9c00f007b20000c488000000e900f007b200af
:101eac008040eb00817578000000eb004f06be000f
:101ebc004f05be004f04be000080fa000000060073
:101ecc00084078009468020000000000409128004f
:101edc00b2650200000000006d407e000004e000ce
:101eec00090032000985e800d46a020000000000f5
:101efc000a007800f007b2006b4078000a05e80091
:101f0c000004e000f8ff3a00080044000c017800df
:101f1c00fa805700823078000804e800e70f54007c
:101f2c00b3ff320030912800d2650200000000009f
:101f3c0011c480008904e900f907b200818f5400b4
:101f4c009fff3a00aaff370030912800d2650200ab
:101f5c0000000000100020004f06be004f05be0020
:101f6c004f04be000080fa0000000600d4ff3700ca
:101f7c000000eb0004c480000402e900f407b20086
:101f8c0014c488000482e80000004200f007b2008c
:101f9c0000c488000000e900f007b2008040eb00ac
:101fac00817578000000eb00c0ff3700889fbe00f1
:101fbc008a9fbe008c1f780010c480000000e800cf
:101fcc00f007b20010c4880002802100e2417800c2
:101fdc0001c2b30081cf510006003a000000e800b6
:101fec00f007b200e240780083cf5000fbff3200d4
:101ffc0010c48800dafd07000000e0003f003a0042
:10200c000005eb000c8d21000b0320000a40e800ba
:10201c00946802000000000040912800b2650200a4
:10202c0000000000090320000bd0b9008002b000b2
:10203c00088d210000004600d2650200000000005f
:10204c000a05e800e40f5500f0ff3a00710120008a
:10205c00606d20006e7c02000000000040882100b2
:10206c000048eb00130020000a0178008300780080
:10207c00030078009cfe07000005e9000000e80062
:10208c00e10f50004c00360020cf80000980b900d1
:10209c002002b0006800780000000100147a0200f1
:1020ac00000000002acf880009d0b900fe044000cf
:1020bc0068807c000000010090912800d26502002d
:1020cc00000000000a00e00032003a00510020003d
:1020dc00505720006e7c02000000000000c48000fd
:1020ec000000e900f007b20010c488004f06780029
:1020fc004f05be004f04be00000006000004e900be
:10210c00e30f540016003c000a03200020cf80008f
:10211c000a80b9002002b000098d21006900780006
:10212c0000000100147a02000000000028cf880093
:10213c000ac5b9007e05450069007d00000001005c
:10214c000800e000e1ff3200c222a800510020008c
:10215c00505720006e7c020000000000dfff3700ab
:10216c0051012000c07220006e7c020000000000b3
:10217c0000c480000000e900f007b20010c4880021
:10218c004f0678004f05be004f04be00000006004d
:10219c00daff3700c222a800e0922800d2650200c4
:1021ac000000000051002000505720006e7c0200ff
:1021bc0000000000c9ff3700e1002000d06e2000b5
:1021cc006e7c02000000000000c480000000e900ea
:1021dc00f007b20010c488004f0678004f05be000f
:1021ec004f04be0000000600c4ff3700889fbe00ed
:1021fc008a9fbe00e0962800b26502000000000035
:10220c00e0c2b300d46a020000000000a09e2100ce
:10221c0010407800d46a02000000000031cf80002a
:10222c00f0442000808f5000ab0032003091280029
:10223c00d26502000000000030992800b26502004f
:10224c0000000000b0c5b300d46a0200000000001a
:10225c00190020000004eb000b8d21000a03200064
:10226c000800e00007003a00808f2100b2650200f0
:10227c00000000000804e8008904e8000800e00001
:10228c00f9ff320000c2b300d46a02000000000063
:10229c000ac0b9008002b00000804500b26502009f
:1022ac0000000000e38f5400f2ff3600d0c5b300ed
:1022bc00d46a020000000000d1002000a0802000a1
:1022cc00167c020000000000a1bf2a000000eb00f9
:1022dc00d869020000000000000478004840de00cd
:1022ec009468020000000000e0c2b300d46a02004f
:1022fc000000000008407800946802000000000014
:10230c0030912800d265020000000000610020001e
:10231c0030762000167c02000000000030cf8000d8
:10232c0040690200000000007100200010ec200049
:10233c00167c02000000000040cf800040690200c3
:10234c0000000000c09b2800b265020000000000e5
:10235c0031cf8000f0442000808f50003b003200d1
:10236c00c09c2800b26502000000000040cf800035
:10237c0021042300810f50003b003200810f5000dc
:10238c001300360031042300810f5000440032004a
:10239c00e3804000810f50001e003200b09d2800e9
:1023ac00b265020000000000f09d2800d26502001a
:1023bc0000000000e1012000907620006e7c0200fd
:1023cc00000000004f05be004f04be0000000600d8
:1023dc00f103b100810f5000f0ff3a00f09c28008f
:1023ec00b265020000000000f09d2800d2650200da
:1023fc0000000000e1012000907620006e7c0200bd
:10240c00000000004f05be004f04be000000060097
:10241c00efff3700809d2800b2650200000000002d
:10242c00f09d2800d265020000000000e1012000b0
:10243c00907620006e7c0200000000004f05be006c
:10244c004f04be0000000600e1ff3700909c2800fe
:10245c00b26502000000000040cf80002104230080
:10246c00810f5000c5ff3a00209d2800b265020084
:10247c0000000000f09d2800d26502000000000062
:10248c00e1012000907620006e7c0200000000002c
:10249c004f05be004f04be0000000600ccff370005
:1024ac00509d2800b265020000000000f09d28003d
:1024bc00d265020000000000e101200090762000af
:1024cc006e7c0200000000004f05be004f04be00f1
:1024dc0000000600beff3700c0972800b26502005e
:1024ec000000000030912800d265020000000000be
:1024fc0030992800b265020000000000b0c5b3009e
:10250c00d46a020000000000190020000004eb0057
:10251c000b8d21000a03200051ff3700c802b600c2
:10252c0003003a00409e2800b26504000000000041
:10253c00109e2800b265040000000000ca02b6001c
:10254c0003003a00a09e2800b265040000000000c1
:10255c00709e2800b265040000000000a10020005d
:10256c00400721006e7c0200000000006104200086
:10257c00c00c21006e7c020000000000a1012000b4
:10258c00e0072100167c0200000000000003200080
:10259c0021cf80000088b9004002b000018d2100dd
:1025ac006100780000000100a100200080092100da
:1025bc00167c02000000000000402000d7ff07003e
:1025cc0000102000d5ff070000202000d3ff0700db
:1025dc0000042000d1ff070000082000cfff0700f7
:1025ec0030912800d265020000000000410020005c
:1025fc0020112100167c02000000000021e3a8003d
:10260c00a0002000567a020000000000926902002f
:10261c000000000011002000b0372000167c0200e2
:10262c000000000090c0b300d46a0200000000005b
:10263c0090002000567a020000000000926902000f
:10264c000000000011002000b0372000167c0200b2
:10265c000000000090c0b300d46a0200000000002b
:10266c00c0002000567a02000000000092690200af
:10267c000000000011002000b0372000167c020082
:10268c000000000090c0b300d46a020000000000fb
:10269c00b0002000567a020000000000926902008f
:1026ac000000000011002000b0372000167c020052
:1026bc000000000090c0b300d46a020000000000cb
:1026cc0021e3a900004020009cff0700001020001f
:1026dc009aff07000020200098ff0700000420004c
:1026ec0096ff07000008200094ff07003091280097
:1026fc00d265040000000000881f78005100200003
:10270c0050922000167c020000000000c1bf2a007d
:10271c000000eb00d86902000000000040690200d4
:10272c000000000061002000a0922000167c020036
:10273c0000000000e1bf2a000000eb00d869020095
:10274c0000000000406902000000000030912800e9
:10275c00d265020000000000c1002000707820004b
:10276c006e7c0200000000007cff0700c202ab0080
:10277c008000320011012000a0622000167c0200b3
:10278c0000000000c0c2b300d46a020000000000c8
:10279c0000c2b300d46a020000000000cb62ab00a0
:1027ac006f00320041012000705d2000167c020099
:1027bc0000000000c0c2b300d46a02000000000098
:1027cc0000c2b300d46a020000000000889c210003
:1027dc009840780070c060005c003200210220003c
:1027ec00307920006e7c02000000000098407800d8
:1027fc0068c060002a003a00b1012000307d200042
:10280c00167c020000000000c0c2b300d46a0200b3
:10281c000000000000c2b300d46a020000000000f7
:10282c00b1012000b01a2100167c0200000000004b
:10283c00709b21001040780094680200000000009a
:10284c0030912800d2650200000000001844780086
:10285c0063406400e14f50002a0032006101200007
:10286c00a05720006e7c0200000000000003200036
:10287c0021cf80000088b9006002b000018d2100da
:10288c006100780000000100c10020007078200079
:10289c006e7c0200000000004f047800000006006f
:1028ac00c1012000e07e2000167c02000000000028
:1028bc00c0c2b300d46a02000000000000c2b30022
:1028cc00d46a020000000000b1012000b01a2100ff
:1028dc00167c020000000000709b21001040780064
:1028ec00946802000000000030912800d2650200bc
:1028fc00000000001844780063406400e14f500071
:10290c00d6ff3a0051012000005920006e7c0200d5
:10291c00000000000003200021cf80000088b900d7
:10292c006002b000018d2100610078000000010000
:10293c00c1002000707820006e7c020000000000b6
:10294c004f04780000000600d5ff3700e10120009d
:10295c00507b20006e7c020000000000a3ff3700bb
:10296c0051012000205c2000167c020000000000b9
:10297c0090ff370021012000b0632000167c02007c
:10298c00000000007fff370010c480000000e8004a
:10299c00f007b20010c4880002802100e2417800e8
:1029ac0001c2b30081cf510006003a000000e800dc
:1029bc00f007b200e240780083cf5000fbff3200fa
:1029cc0010c4880066fb07000000e900e30f50000c
:1029dc0005003e0010cf88002101200090832000cc
:1029ec006e7c040000000000408821000048eb00d1
:1029fc0021022000708120006e7c0200000000008b
:102a0c008001eb004200200011002000100020008b
:102a1c0035fc0700219e21008008e90021012000df
:102a2c00908320006e7c040000000000eeff370055
:102a3c00889fbe008a1f780010c480000000e80048
:102a4c00f007b20010c488000880210068417800ab
:102a5c0001c2b300814f510006003a000000e800ab
:102a6c00f007b200e840780082cf5000fbff320044
:102a7c0010c488003afb07000040e900e94f500001
:102a8c001d003e00099e2100804c78000045eb00a3
:102a9c002a00320041012000309020006e7c0200a0
:102aac000000000011012000a01921006e7c020022
:102abc00000000000c6a0200000000000004e000ae
:102acc00fcff320090c0b300994f10003e00320062
:102adc00ec6902000000000008c2b300c66a0200e4
:102aec0000000000884f5000fcff3a004f057800b2
:102afc004f04be0000000600408821000048eb0097
:102b0c00d1082000608720006e7c020000000000cd
:102b1c008001eb00a200200011002000900020009a
:102b2c00f1fb07000040e900099e2100804c780071
:102b3c000045eb00e94f5000d6ff3a0010c480006e
:102b4c006841780001c2b300814f510006003a0081
:102b5c000000e800f007b200e840780082cf500097
:102b6c00fbff320010c48800fdfa07000045780016
:102b7c000004e000c7ff3a0041882100804878003b
:102b8c00d09e2800d2650200000000008001eb00fe
:102b9c00f2ff27008000eb0020022000d2fb070090
:102bac000045780041012000309020006e7c02002e
:102bbc000000000011012000a01921006e7c020011
:102bcc0000000000bbff37000a407800e66a0200f4
:102bdc0000000000ec6902000000000008c2b30015
:102bec00beff3700f8874700889fbe008a9fbe0053
:102bfc008c9fbe008e1f78000000eb0010c4880074
:102c0c0000c48800409e21000008eb004d88210084
:102c1c00804eeb008001eb005a882100020220005c
:102c2c007818b9008000e9008a8040000000eb00b1
:102c3c008068eb000000e800820f5000fcff3a00b7
:102c4c008301e800e38f5100f5ff3a000000eb0030
:102c5c0070c688000006eb008cb79f00acb79f00d5
:102c6c000b8d210009802100889c210071075400e4
:102c7c000003200021cf80000088b9008002b00042
:102c8c0000804500b26502000000000050a0280042
:102c9c00b2650200000000000000eb00c0b79f000e
:102cac0070c680000000e0001b0032000000e9004c
:102cbc0070c688007800b9006a4078000004e00013
:102ccc001300320002c480008000eb00dcb79f00d0
:102cdc000106780080747900d46a020000000000bc
:102cec000c06e80002c480000201e800f207b20002
:102cfc0002c4880070c680007800b900000046004d
:102d0c006a4078000004e000f2ff3a005fb69700da
:102d1c000000eb0070c68800146a0200000000007e
:102d2c000004e00028003a009840780064c060007d
:102d3c00f9ff320020cf8000020320000280b9008e
:102d4c007a0040006b007800000001000004e000f5
:102d5c00f1ff320020cf8000030320000380b90074
:102d6c008002b000048d210004004000b265020016
:102d7c000000000050a02800b26502000000000016
:102d8c0011c4800000c48000808f5000e2ff32002c
:102d9c0069c07800e1b79f00d46a0200000000000f
:102dac00efb09700f107b2008100e80000c480008a
:102dbc00808f5000f6ff3a00146a020000000000f9
:102dcc000004e000d8ff3200ec6a020000000000b2
:102ddc000004e00003003200f26a02000000000070
:102dec00afff3700c66a0200000000008040780088
:102dfc000181fb008001eb00f5072000850f5100dd
:102e0c00e08f59003b00360002c480000200e8004d
:102e1c00f007b20013c48000830f5000f50032009d
:102e2c00ffcf5000f3003600e0c7b30080cf500056
:102e3c00f0003e00820f56006c083200b0a0280053
:102e4c00e1b79f0082bf9f00b26502000000000046
:102e5c000fb997000c005100f007b2009468020003
:102e6c0000000000a0a12800b265020000000000d4
:102e7c0002c480008c01e900f307b200efb09700a8
:102e8c00828f51000e0032000c027800014678004f
:102e9c0002804400e94279001540980069407900ad
:102eac000004e00069023a000201e900f207b200f6
:102ebc00828f5100f6ff3a008c40780004067800af
:102ecc0001407800e1b79f00d46a020000000000c6
:102edc00efb0970081747e000c06e800fc07b2008e
:102eec0000c480000000e800f007b20000c48800b5
:102efc006bff37000260010013023700010237003c
:102f0c00ef013700c0ff3700c001370090003700d9
:102f1c00b5013700bcff370082013700baff37001c
:102f2c00b8003700b8ff3700b7ff3700b5003700df
:102f3c000d023700b4ff370096003700b2ff3700a0
:102f4c00b1ff3700b0ff3700afff3700aeff3700df
:102f5c00adff3700acff3700abff3700aaff3700df
:102f6c00a9ff370064003700a7ff3700a6ff370022
:102f7c00a5ff3700a4ff3700a3ff3700a2ff3700df
:102f8c00a1ff3700a0ff37009fff37009eff3700df
:102f9c009dff37009cff37009bff37009aff3700df
:102fac0099ff370098ff370097ff370096ff3700df
:102fbc0095ff370094ff370093ff370092ff3700df
:102fcc0091ff370090ff37008fff37008eff3700df
:102fdc008dff37008cff37008bff37008aff3700df
:102fec0089ff370088ff370087ff370086ff3700df
:102ffc0085ff370084ff370083ff370082ff3700df
:10300c0081ff370080ff37007fff37007eff3700de
:10301c007dff37007cff37007bff37007aff3700de
:10302c0079ff370078ff370077ff370076ff3700de
:10303c0075ff370074ff370073ff370072ff3700de
:10304c0071ff370070ff37006fff37006eff3700de
:10305c006dff37006cff37006bff37006aff3700de
:10306c0069ff370068ff370067ff370066ff3700de
:10307c0065ff370064ff370063ff370062ff3700de
:10308c0061ff370060ff37005fff37005eff3700de
:10309c005dff37005cff37005bff37005aff3700de
:1030ac0059ff370058ff370057ff370056ff3700de
:1030bc0055ff370054ff370053ff370052ff3700de
:1030cc0051ff370050ff37004fff37004eff3700de
:1030dc004dff37004cff37004bff37004aff3700de
:1030ec0049ff370048ff370047ff370046ff3700de
:1030fc0045ff370045013700c66a0200000000009a
:10310c00b1c5b300814f5000e5fe3a00c66a02001b
:10311c000000000011c4b300814f50001d003200ac
:10312c0060013e00f0c05000814f50007001320031
:10313c00e3c04000814f5000d9fe3a00c66a02003d
:10314c0000000000e1c7b300814f5000d4fe3a00ec
:10315c0001c48000810f560026003200b0a0280068
:10316c00e1b79f00b265020000000000efb09700cd
:10317c000c805000f007b2009468020000000000c0
:10318c00a0a12800b2650200000000000cc4800061
:10319c00c3fe370016c480008600e900f107b200b8
:1031ac0000c48000808f5000120032000002eb003f
:1031bc00cfb39700d0b79f0069c178000204e0003c
:1031cc00fb063a000101e900f207b200058021007c
:1031dc00e54179000304e000030032000402e8003a
:1031ec00870f52002c063e0082007800808f500022
:1031fc00f1ff3a0070c0b300d46a02000000000076
:10320c00a7fe37000cc480000040eb0080747e00e9
:10321c000c06e800fc07b2000cc4880030912800b2
:10322c00d26502000000000005c4800095b79f0025
:10323c0010c48000d0b79f00804eeb000041eb0023
:10324c00c2df9f00fcaf9f00694178000281fb0048
:10325c008001eb00e1072000810f5100e08f590045
:10326c001e00360011c0b300814e78000000e8004b
:10327c00f007b20010c488000001eb001d04e00050
:10328c0096003a0001c48000808f5000020032008a
:10329c000200e000ecff32007fae97001fb19700f8
:1032ac0012c4880002c488000003200021cf8000d3
:1032bc000088b9008002b00000804500b2650200b1
:1032cc000000000050a02800b265020000000000c1
:1032dc000000eb00c0b79f0071fe370002600100d8
:1032ec00e2ff3700dfff3700deff3700ddff37007e
:1032fc00dcff3700dbff3700daff3700d9ff370080
:10330c00d8ff3700d7ff3700d8ff3700d5ff37007d
:10331c00d4ff3700d5ff3700d2ff3700d1ff37007d
:10332c00d0ff3700cfff3700ceff3700cdff37007f
:10333c00ccff3700cbff3700caff3700c9ff37007f
:10334c00c8ff3700c7ff3700c6ff3700c5ff37007f
:10335c00c4ff3700c3ff3700c2ff3700c1ff37007f
:10336c00c2ff370058013700d8023700c6023700b9
:10337c003e03370025033700ab023700b9ff370097
:10338c008b023700b7ff3700b6ff3700b5ff3700a9
:10339c00b6ff3700740237005f0237002602370091
:1033ac00b7013700b6013700b5013700b40137005b
:1033bc00b3013700b2013700b1013700b00137005b
:1033cc00af013700ae013700a6ff3700a5ff37006d
:1033dc002b02370087013700a2ff37007b01370033
:1033ec005b0137003f0437009eff37002d04370088
:1033fc00220437009bff37009aff370099ff3700f4
:10340c0098ff370097ff370096ff370095ff37007e
:10341c000a04370093ff370092ff370091ff370003
:10342c003d0437008fff37008eff3700f60337005f
:10343c008cff37008bff37008aff3700c80337003b
:10344c0088ff370087ff370086ff3700b703370048
:10345c00a403370095033700780337006503370062
:10346c0080ff3700560337004c0337003d0337000d
:10347c00270337007bff3700210537001305370082
:10348c0003053700f504370076ff370075ff37006a
:10349c002e0537002405370072ff37004e04370025
:1034ac00390437006fff3700870437006dff370092
:1034bc006cff37006bff37007a0437005d04370070
:1034cc0068ff370067ff370066ff37004b04370093
:1034dc00bd04370000033700ec0037005101200019
:1034ec00106c2000167c02000000000010c480004c
:1034fc00dfb29700808f5200370631000540500034
:10350c009468020000000000804eeb00309128000f
:10351c00d26502000000000010c4800012002000e0
:10352c0058ff370010c48000800f560031ff320066
:10353c0000c48000800f56005c0632000c06e900c7
:10354c00fc07b20070a02800b26502000000000069
:10355c0000c480000001eb00800f56001300320005
:10356c008c017800dcb79f000306e80069407e0000
:10357c0080f479000004e00001003a0000c2b300be
:10358c0082bf9f00d46a0200000000000fb99700b0
:10359c000201e8008c017800f307b20000c480003f
:1035ac00808f5100f0ff3a005fb697000000e900f1
:1035bc00f007b20000c48800b0a0280082bf9f00b2
:1035cc00b2650200000000000fb9970002407800bd
:1035dc009468020000000000e0a02800b265020020
:1035ec0000000000aefd370000c48000800f5600c4
:1035fc0000ff32000c06e800fc07b20000a1280016
:10360c00b265020000000000a5fd370000c4800078
:10361c00800f5600f7fe32008c0178000001eb00a1
:10362c00dcb79f000306e80069407e0080f4790057
:10363c000004e00001003a0000c2b30082bf9f000a
:10364c00d46a0200000000000fb997000201e800e4
:10365c008c017800f307b20000c48000808f510009
:10366c00f0ff3a005fb697008301e900f307b20060
:10367c0003c48800b0a0280082bf9f00b26502007e
:10368c00000000000fb99700024078009468020017
:10369c0000000000e0a02800b2650200000000005d
:1036ac007ffd370031c4b300814f5000ceff320094
:1036bc002d0039008140e800814f500078fd3a0020
:1036cc008fb09700e48f5000e7053c0010c48000d9
:1036dc00800f5600c7fe32000c06e900fc07b20052
:1036ec0070a02800b2650200000000006cfd3700dd
:1036fc00c66a020000000000e1c7b300814f500011
:10370c0067fd3a0011c48000810f5600b9fe3200eb
:10371c00b0a02800e1b79f00b265020000000000d5
:10372c00efb0970001005600f007b2009468020059
:10373c0000000000e0a02800b265020000000000bc
:10374c001cc4800056fd37008fb197008301e80040
:10375c0083b79f00f48f510051fd3a00887302002b
:10376c00000000004efd370017c480008700e90000
:10377c00f107b20000c48000808f500013003200ab
:10378c000002eb004fb197000203e900d0b79f0095
:10379c0069c178000204e0008a053a000101e900e1
:1037ac00f207b20005802100e54179000304e00036
:1037bc00030032000402e800840f5300730432004b
:1037cc0082007800808f5000f1ff3a00cfb0970054
:1037dc00e18f500087fe3a0040a12800b26502003c
:1037ec00000000000003200021cf80000088b900f9
:1037fc008002b00000804500b265020000000000ad
:10380c0050a02800b2650200000000000cc480002b
:10381c0010c48000800f5600070032000041eb00fe
:10382c0082747e000c06e900fc07b200800f560083
:10383c00faff3a000cc488008041eb0083747e00d0
:10384c000002eb00c4b79f0015fd370082bf9f003c
:10385c00e3b79f00f4b79f00d46a02000000000099
:10386c00c0a12800b2650200000000007fb29700e2
:10387c00efb197000fb997000201e900f207b2000f
:10388c00828f510082fd3a008bfd370020cf8000e3
:10389c000000e00079053a0011c0b3000140780047
:1038ac00726f02000000000010c480000000e800ed
:1038bc00f007b20010c488000001eb001d04e0000a
:1038cc0070fe320005ff370039f80700000678005b
:1038dc00a1002000706b2000167c0200000000008c
:1038ec000c00e0000e00320020cf8000040320000a
:1038fc000480b900780040006b00780000000100e3
:10390c000080fb00626502000000000000c2b300f2
:10391c00d46a0200000000000c06e900f2ff3a0035
:10392c0001012000a06920006e7c02000000000054
:10393c0010c480000000e800f007b20010c488003a
:10394c000001eb001d04e0004efe3200e3fe3700e8
:10395c0017f80700000678000c00e000f4ff3200b6
:10396c006101200040612000167c02000000000074
:10397c000e5402000000000062650200000000000e
:10398c0030912800d2650200000000000c06e9000e
:10399c00e7ff32006101200040612000167c02002c
:1039ac00000000000e5402000000000062650200de
:1039bc000000000030912800d265020000000000d9
:1039cc000c06e900e6ff3a00d9ff3700767c0200ce
:1039dc000000000010c480000000e800f007b200f6
:1039ec0010c488000001eb001d04e00025fe32002d
:1039fc00bafe37000000e800f007b20010c48800df
:103a0c006941780001c2b300814f510006003a00b1
:103a1c000000e800f007b200e940780082cf5000c7
:103a2c00fbff320010c488004df707000006780039
:103a3c000c007800086902000000000040a4280077
:103a4c00b2650200000000000c407800946802008f
:103a5c000000000040a42800b26502000000000035
:103a6c000c4078000666020000000000309128002f
:103a7c00d26502000000000010c48000adff3700ca
:103a8c007100200010662000167c0200000000006f
:103a9c0033f70700c0b79f0010c480000000e90096
:103aac00f007b20010c48800c1f707000006e80058
:103abc00d2f707000000e00004003200004f78004d
:103acc00e80f5000020534001854a0000c06e90061
:103adc00300032004fb09700e87a0200000000007e
:103aec00184078000058a300c804320005c1b30088
:103afc009ecf120007003200b0c3b300d46a02009c
:103b0c00000000001e4078009468020000000000d5
:103b1c00184078000038a30029003a0020cf80001c
:103b2c00020320000280b90068004000eb0078001e
:103b3c004fb0970001000100b0b79f0000c2b30066
:103b4c00d46a02000000000003c4b30018c0610076
:103b5c00deff32006100200080662000167c02002f
:103b6c0000000000849c2100144278006840620030
:103b7c0026003a003fb09700e87a020000000000ef
:103b8c0000c2b300d46a0200000000000c06e90079
:103b9c00d0ff3a0030912800d265020000000000ee
:103bac0010c480000000e800f007b20010c48800c8
:103bbc000001eb001d04e000b2fd320047fe3700af
:103bcc004fb09700f07b020000000000c0b79f00d0
:103bdc0020cf8000020320000280b9006800400062
:103bec00eb0078004fb0970001000100b0b79f00c8
:103bfc0000c2b300d46a02000000000003c4b3008a
:103c0c0018c06100b1ff3200d2ff37003fb09700ff
:103c1c00f07b020000000000b0b79f003fb097009f
:103c2c00e87a02000000000000c2b300d46a02006f
:103c3c0000000000d5ff370081002000e066200066
:103c4c006e7c0200000000000003200021cf8000e9
:103c5c000088b9006c0040006b0078000000010087
:103c6c0010c480000000e800f007b20010c4880007
:103c7c000001eb001d04e00082fd320017fe37004e
:103c8c0013c0b300834e78008000e800f107b20047
:103c9c00e9c078000104e00074fd3200120020003d
:103cac00e5c3b30085cf5000130032000201e800d9
:103cbc0080004100f107b200e9c078000104e00087
:103ccc00f7ff3a0041882100834e7800fa0f51002b
:103cdc00b503340012c0b300824878000000e8003d
:103cec00f007b20010c488000001eb001d04e000d6
:103cfc0064fd3200f9fd37008041eb000201e80061
:103d0c0080004100f107b200e9c078000104e00036
:103d1c00e3ff3a00ebff3700c1002000d064200025
:103d2c00167c0200000000000003200021cf800060
:103d3c000088b900740040006b007800000001009e
:103d4c00626502000000000010c480000000e80062
:103d5c00f007b20010c488000001eb001d04e00065
:103d6c0048fd3200ddfd3700e1002000e067200057
:103d7c006e7c0200000000000003200021cf8000b8
:103d8c000088b900700040006b0078000000010052
:103d9c0010c480000000e800f007b20010c48800d6
:103dac000001eb001d04e00036fd3200cbfd3700b6
:103dbc000000e800f007b20010c4880068f60700a5
:103dcc0011c48000e9c1780002c2b30082cf510057
:103ddc0006003a008100e800f107b20069c17800e2
:103dec00834f5100fbff320011c48800f107b20071
:103dfc0069c1780091c2b300814f51007004320048
:103e0c0010c0b300804e780010c480000000e800a1
:103e1c00f007b20010c488000001eb001d04e000a4
:103e2c0018fd3200adfd3700e1f607000006780002
:103e3c006100200090652000167c0200000000004c
:103e4c000c007800e8660200000000002100200051
:103e5c00f06520006e7c0200000000000c00780071
:103e6c009e7b02000000000010c480000000e800ef
:103e7c00f007b20010c488000001eb001d04e00044
:103e8c0000fd320095fd37005100200050602000ed
:103e9c006e7c0200000000000c6a020000000000b2
:103eac000004e000fcff32000000fe0010c48000a3
:103ebc000000e800f007b20010c488000001eb001d
:103ecc001d04e000effc320084fd370013c0b3008a
:103edc00834e78008000e800f107b200e9c078005a
:103eec000104e000e1fc32000081e80024c2b300d0
:103efc0084cf50003d00320082007800f107b20000
:103f0c00e9c078000201e8000104e000f7ff3a0084
:103f1c00834e78000304e000d4fc3a0071002000ca
:103f2c0010662000167c02000000000020c2b300c6
:103f3c00d46a02000000000011c480008100e80077
:103f4c00f107b2000080210060c0780025c2b300e8
:103f5c00854f5000160032000c03200011c488005d
:103f6c00d46a02000000000010c480006940780090
:103f7c000000fb0018417800e840610044033a005f
:103f8c0022cf80000c91b90068014100eb00790050
:103f9c000100010011c480008100e800f107b200ab
:103fac0069c0780023c2b300834f5000ebff3a0086
:103fbc0011c4880020c2b300d46a020000000000c3
:103fcc0030912800d26502000000000010c480006f
:103fdc000000e800f007b20010c488000001eb00fc
:103fec001d04e000a7fc32003cfd37008041eb00d3
:103ffc0082007800f107b200e9c078000201e80005
:10400c000104e000b9ff3a00c1ff370068f6070071
:10401c00000678006100200090652000167c0200ec
:10402c00000000000c007800e866020000000000b0
:10403c002100200030ee20006e7c02000000000009
:10404c000c007800cc7b02000000000010c4800043
:10405c000000e800f007b20010c488000001eb007b
:10406c001d04e00087fc32001cfd3700007d0200bf
:10407c00000000000004e0002dfe3200a100200032
:10408c00a06020006e7c02000000000040062000b2
:10409c00cc7b020000000000147a0200000000003b
:1040ac000c6a0200000000000004e000fcff32007b
:1040bc0081bf2a000140010010c480000000e8000c
:1040cc00f007b20010c488000001eb001d04e000f2
:1040dc006cfc320001fd37000003200021cf800072
:1040ec000088b900660040006b00780000000100f9
:1040fc0010c480000000e800f007b20010c4880073
:10410c000001eb001d04e0005efc3200f3fc370004
:10411c00f1002000c0362000167c020000000000d8
:10412c00647a02000000000011002000b03720006b
:10413c00167c02000000000030912800d2650200bd
:10414c000000000010c480000000e800f007b2007e
:10415c0010c488000001eb001d04e00049fc320093
:10416c00defc3700c0cfb300184c600061012000aa
:10417c00a05720006e7c02000000000010c48000dc
:10418c000000e800f007b20010c488000001eb004a
:10419c001d04e0003bfc3200d0fc370024fa070081
:1041ac0010c480000000e800f007b20010c48800c2
:1041bc000001eb001d04e00032fc3200c7fc3700ac
:1041cc00fbf50700000678000c00e000d8fd32007b
:1041dc00ec530200000000000c06e900d4fd320094
:1041ec00ec530200000000000c06e900f8ff3a0056
:1041fc00cffd3700e1002000c06820006e7c02007b
:10420c00000000000003200021cf80000088b900ce
:10421c00720040006b0078000000010010c48000a8
:10422c000000e800f007b20010c488000001eb00a9
:10423c001d04e00013fc3200a8fc3700dcf507007d
:10424c0000067800d1002000a06a2000167c020035
:10425c00000000000c007800e87a0200000000006a
:10426c000c00e0004bfe320020cf80000303200046
:10427c000380b900760040006b007800000001005c
:10428c000c06e90043fe320020cf8000030320001f
:10429c000380b900760040006b007800000001003c
:1042ac000c06e900f0ff3a003afe3700000320004c
:1042bc0021cf80000088b900640040006b007800ba
:1042cc000000010010c480000000e800f007b200fc
:1042dc0010c488000001eb001d04e000e9fb320073
:1042ec007efc370081002000606720006e7c02009d
:1042fc00000000000003200021cf80000088b900de
:10430c006e0040006b0078000000010010c48000bb
:10431c000000e800f007b20010c488000001eb00b8
:10432c001d04e000d7fb32006cfc370000032000ba
:10433c0021cf80000088b9006b00780000000100dc
:10434c0010c480000000e800f007b20010c4880020
:10435c000001eb001d04e000cafb32005ffc3700db
:10436c0020cf80000000e000b3023200c002a900a0
:10437c00c202a80021e3a80020002000cc7b020090
:10438c0000000000a0002000567a0200000000008f
:10439c00011b2000810f5000060036009000200009
:1043ac00567a020000000000712b2000810f500093
:1043bc006c023e00c002a900c202a900a0a5280000
:1043cc00d26502000000000021012000b063200033
:1043dc00167c02000000000030912800d26502001b
:1043ec000000000021e3a90010c480000000e800d8
:1043fc00f007b20010c488000001eb001d04e000bf
:10440c00a0fb320035fc370020cf80000000e0001c
:10441c0089023200385402000000000010c48000f1
:10442c000000e800f007b20010c488000001eb00a7
:10443c001d04e00093fb320028fc37001834a00068
:10444c00c1012000e07e2000167c0200000000006c
:10445c0030912800d26502000000000010c48000da
:10446c000000e800f007b20010c488000001eb0067
:10447c001d04e00083fb320018fc37007c7a02003c
:10448c000000000010c480000000e800f007b2003b
:10449c0010c488000001eb001d04e00079fb320021
:1044ac000efc3700184078000000a0000014a1009a
:1044bc00004c780051012000005920006e7c020055
:1044cc000000000010c480000000e800f007b200fb
:1044dc0010c488000001eb001d04e00069fb3200f1
:1044ec00fefb370032f50700000678000c00e000f8
:1044fc000ffd3200ca530200000000000c06e90058
:10450c000bfd3200ca530200000000000c06e9004b
:10451c00f8ff3a0006fd370020cf80000000e000d5
:10452c00450232001842780070406200f8013200f7
:10453c00c962a800cb62a90041012000705d200077
:10454c00167c02000000000030912800d2650200a9
:10455c000000000021e3a800b0002000567a020001
:10456c0000000000f1042000810f50009dff3e0070
:10457c0010a22800d26502000000000021e3a9006f
:10458c0010c4800099ff370020cf80000000e000ad
:10459c0029023200cb62a900c962a9005101200096
:1045ac00205c2000167c02000000000030912800e6
:1045bc00d26502000000000010c480000000e8007a
:1045cc00f007b20010c488000001eb001d04e000ed
:1045dc002cfb3200c1fb3700ebf8070010c4800045
:1045ec000000e800f007b20010c488000001eb00e6
:1045fc001d04e00023fb3200b8fb37000003200051
:10460c0021cf80000088b9000080e8006b007800a2
:10461c000000010010c480000000e800f007b200a8
:10462c0010c488000001eb001d04e00015fb3200f3
:10463c00aafb370020cf80000000e000fe01320012
:10464c00010320000180b9002002b0006b0078004b
:10465c000000010090912800d265020000000000cb
:10466c00c002a900c202a90021012000b0632000f1
:10467c00167c02000000000030912800d265020078
:10468c000000000010c480000000e800f007b20039
:10469c0010c488000001eb001d04e000f9fa3200a0
:1046ac008efb3700adf7070010c480000000e80057
:1046bc00f007b20010c488000001eb001d04e000fc
:1046cc00f0fa320085fb3700610020008066200084
:1046dc00167c020000000000dbf4070080ef9f0056
:1046ec00b3f4070000067800c4f407000000e000f3
:1046fc0004003200004f7800e80f50001202340022
:10470c001854a0008fea97000504e0000500320061
:10471c0010cf8000c0df9f000580fb00219e210090
:10472c008008e9000c00e0001c00320020cf800063
:10473c00020320000280b9006a0040006b00780080
:10474c000000010098417800e8c061005f013a0068
:10475c00e87a02000000000004c2b30018406200b6
:10476c006101320000c1b3009e4f10000600320000
:10477c00b0c3b300d46a0200000000001e407800f1
:10478c00946802000000000000c2b300d46a02006a
:10479c00000000000c06e900e4ff3a008fe89700e7
:1047ac000104e000fbfc32004fd997000280fb00b3
:1047bc0010cf880030912800d26502000000000064
:1047cc0010c48000f7fc37000000e800f007b200ce
:1047dc0010c488006941780001c2b300814f5100b8
:1047ec0006003a000000e800f007b200e94078004b
:1047fc0082cf5000fbff320010c48800d8f30700b2
:10480c000080fb00f07b0200000000000006780036
:10481c000c007800086902000000000040a4280089
:10482c00b2650200000000000c40780094680200a1
:10483c000000000040a42800b26502000000000047
:10484c000c40780006660200000000003091280041
:10485c00d26502000000000087fc370063f60700f9
:10486c0020cf80000000e00031fc3200a2f70700ee
:10487c0010c480000000e800f007b20010c48800eb
:10488c000001eb001d04e0007efa320013fb370040
:10489c003ff507000000e00025fc3a0012c4800040
:1048ac00d2b79f000200780003c4800093b79f002a
:1048bc000000e800f007b20010c488000001eb0013
:1048cc001d04e0006ffa320004fb370020cf80009b
:1048dc000000e000580132007e4d02000000000094
:1048ec0010c480000000e800f007b20010c488007b
:1048fc000001eb001d04e00062fa3200f7fa370009
:10490c00665002000000000010c480000000e800a7
:10491c00f007b20010c488000001eb001d04e00099
:10492c0058fa3200edfa3700a0f5070010c48000e9
:10493c000000e800f007b20010c488000001eb0092
:10494c001d04e0004ffa3200e4fa37001834a100dd
:10495c00b1012000307d2000167c02000000000018
:10496c0030912800d26502000000000010c48000c5
:10497c000000e800f007b20010c488000001eb0052
:10498c001d04e0003ffa3200d4fa3700dfb2970082
:10499c00c6b79f00808f53000b0032000040eb0025
:1049ac0080f47a008502e900f507b200858f530088
:1049bc00faff3a0007c48800008021008041eb0018
:1049cc0003f07b0007007800800f510007003200d5
:1049dc00e94179000304e0003f0132000201e900e3
:1049ec00f207b200800f5100f9ff3a0040a12800f5
:1049fc00e1b79f00b2650200000000000003200038
:104a0c0022cf80000091b9008002200002004000fb
:104a1c0000804500b26502000000000050a0280094
:104a2c00b265020000000000efb097002fb29700b3
:104a3c00810f52003e0132002fb6970069407e0074
:104a4c00e1b79f00d46a02000000000000c480009f
:104a5c006cf07c000000e800f007b20000c4880095
:104a6c000c06e800fc07b200efb09700810f56006f
:104a7c00f2ff3a00000678000040eb0080747e00e4
:104a8c00810f560086f83a00cfb09700e18f5000a6
:104a9c00d8f93a0050fb3700dfb29700cfb197003e
:104aac008301e800c3b79f00800f53000a00320057
:104abc000042eb0084f47a008502e900f507b200ad
:104acc00850f5300faff3a0006c4880000802100cd
:104adc0004707b0006007800800f51000700320044
:104aec00e94179000304e000190132000201e900f8
:104afc00f207b200800f5100f9ff3a0040a12800e4
:104b0c00e1b79f00b2650200000000000003200026
:104b1c0022cf80000091b9008002200002004000ea
:104b2c0000804500b26502000000000050a0280083
:104b3c00b265020000000000efb09700afb2970022
:104b4c00818f5200180132002fb6970069407e0009
:104b5c00e1b79f00d46a02000000000000c480008e
:104b6c006cf07c000000e800f007b20000c4880084
:104b7c000c06e800fc07b200efb09700810f56005e
:104b8c00f2ff3a00000678008041eb0083747e004f
:104b9c00810f560042f83a0070c0b300d46a02008c
:104bac00000000003ef837000304e000aff93a00c3
:104bbc000000e800f007b20010c48800e1b79f00c5
:104bcc00e7f207000006780010c4800000017800ae
:104bdc00f207b20003802100e3417900d2c3b30095
:104bec00efb0970082cf5100160132000c00e000ac
:104bfc000b013a00518821001c0020000c40780069
:104c0c00e1b79f009468020000000000a0a72800f4
:104c1c00b2650200000000006fb09700b2650200a0
:104c2c000000000050a02800d26502000000000027
:104c3c000c06e800efb09700f8804000e40f560037
:104c4c003bfb32000c407800e1b79f0094680200f7
:104c5c0000000000a0a72800b265020000000000c0
:104c6c006fb09700b26502000000000050a0280051
:104c7c00d2650200000000000c06e800efb09700bf
:104c8c00f8804000e40f5600dcff3a0028fb3700a8
:104c9c00f07b02000000000022cf80000c91b900d4
:104cac0068014100eb0079000100010011c4800093
:104cbc008100e800f107b20069c0780023c2b3009c
:104ccc00834f5000a5fc3a00b9fc3700f07b020082
:104cdc0000000000e87a02000000000004c2b300eb
:104cec00184062009ffe3a0085c0b3009ecf1200b0
:104cfc00a5fe3200b0c3b300d46a0200000000006d
:104d0c001e40780094680200000000009efe3700f0
:104d1c0021022000f0e920006e7c0200000000005f
:104d2c00c962a800cb62a90041012000705d20007f
:104d3c00167c02000000000030912800d2650200b1
:104d4c000000000021e3a800b0002000567a020009
:104d5c0000000000f1042000810f5000a1fd3e0076
:104d6c0003fe370011012000a0622000167c020017
:104d7c000000000030912800d26502000000000005
:104d8c000003200021cf80000088b9000002b00091
:104d9c006b0078000000010080a42800d26502009e
:104dac000000000021e3a90010c480008ffd370033
:104dbc008100e900f107b200808f5000fef83a0044
:104dcc000cf937008100e900f107b200808f500028
:104ddc006ffa3a007dfa370001c8b3000140400079
:104dec00afe89700014050009468020000000000fa
:104dfc00804eeb0030912800d265020000000000cc
:104e0c0010c48000120020001ef9370084c0b300cb
:104e1c009e4f12003ffb3200b0c3b300d46a0200b5
:104e2c00000000001e4078009468020000000000a2
:104e3c001840780037fb3700d1012000505a200071
:104e4c006e7c02000000000010c480000000e8002e
:104e5c00f007b20010c488000001eb001d04e00054
:104e6c0008f932009df93700b27d02000000000005
:104e7c000001eb0082b79f0089f73700a1012000e9
:104e8c00b05e20006e7c02000000000010c48000a8
:104e9c000000e800f007b20010c488000001eb002d
:104eac001d04e000f7f832008cf937000c06e9001d
:104ebc00fc07b2000cc488000040eb0080747e003c
:104ecc00f0902800b26502000000000074f7370073
:104edc001854a100fdfa37000201e800f207b200f5
:104eec00a2b79f0040a12800e1b79f00b265020065
:104efc00000000000003200022cf80000091b900c8
:104f0c00800220000200400000804500b2650200d3
:104f1c000000000050a02800b26502000000000054
:104f2c00efb097002fb29700810f5200c2fe3a00eb
:104f3c000cc480000040eb0080747e00810f560092
:104f4c0057f73a00d0fe37001854a100edfd37009a
:104f5c000201e800f207b200a2b79f0040a12800ae
:104f6c00e1b79f00b26502000000000000032000c2
:104f7c0022cf80000091b900800220000200400086
:104f8c0000804500b26502000000000050a028001f
:104f9c00b265020000000000efb09700afb29700be
:104fac00818f5200e8fe3a000cc480008041eb0077
:104fbc0083747e00810f560039f73a00f6fe3700f5
:104fcc000103200022cf80000191b900fc004100b8
:104fdc00eb8078000100010030912800d2650200be
:104fec000000000010c4800052fa37000140780025
:104ffc00e1b79f00d46a0200000000000cc48000de
:10500c00efb0970081747e000c06e800fc07b2003c
:10501c000cc488000042eb0084747e0020f737003b
:10502c000c01e900e20f51002afb3e0030912800f0
:10503c00d2650200000000007cc6880010c480000d
:10504c003cfa37000c06e900e20f560021fb3e004b
:10505c000000e800f007b20010c488007860b900c6
:10506c008000e9008a804000010178000000eb001c
:10507c000069eb000000e800f80f5000fcff3a005c
:10508c0010c4800069417800e3c3b300834f510022
:10509c0076f83200826878000000e800f007b20071
:1050ac00f8ff37005752490054452000424954003c
:1050bc003a2020002a6e650078742000636c6f0023
:1050cc00636b2000285e2900207769006c6c20003f
:1050dc0075736500207468006973200076616c003c
:1050ec0075654e006f2064006576690063652c0061
:1050fc002074720079202800414c4100524d290047
:10510c00205345004152430048206d0061637200fa
:10511c006f2066006972730074414400445245006c
:10512c00535320004d414300524f200020302e009d
:10513c004d616300726f20006d656e00754d6100ee
:10514c0063726f002020200020203100574952004c
:10515c004520610064647200657373000d0a2000c1
:10516c0020202a003157490052452000524f4d0053
:10517c0020434f004d4d41004e4420004d41430013
:10518c00524f73003a0d0a00203531002e52450063
:10519c0041442000524f4d0020283000783333001a
:1051ac0029202a00666f7200207369006e676c00fc
:1051bc006520640065766900636520006275730084
:1051cc000d0a200038352e004d4154004348200074
:1051dc00524f4d00202830007835350029202a0008
:1051ec00666f6c006c6f770065642000627920003c
:1051fc003634620069742000616464007265730067
:10520c00730d0a0020323000342e53004b495000ed
:10521c0020524f004d2028003078430043292000b5
:10522c002a666f006c6c6f007765640020627900f1
:10523c0020636f006d6d61006e640d000a203200fa
:10524c0033362e00414c4100524d20005345410055
:10525c00524348002028300078454300290d0a00ad
:10526c0020323400302e5300454152004348200078
:10527c00524f4d00202830007846300029414c0018
:10528c0041524d0020534500415243004820280014
:10529c0030784500432953004541520043482000d3
:1052ac002830780046302900446576006963650033
:1052bc002049440073206100726520006176610012
:1052cc00696c6100626c650020627900204d4100c0
:1052dc0043524f002c2073006565200028302900b4
:1052ec002e52450041442000524f4d0020283000e2
:1052fc0078333300293a20004d41540043482000b4
:10530c00524f4d00202830007835350029534b0082
:10531c0049502000524f4d00202830007843430064
:10532c0029556e006b6e6f00776e20006d61630007
:10533c00726f2c002074720079203f00206f720075
:10534c0020283000292066006f72200068656c00f0
:10535c0070425500532052004553450054205700cd
:10536c0061726e00696e67003a202a0053686f0004
:10537c00727420006f7220006e6f200070756c00cc
:10538c006c2d750070202a004e6f2000646576002d
:10539c00696365002064650074656300746564006e
:1053ac0020445300313853003230200048696700e4
:1053bc006820500072657300204469006720540017
:1053cc00686572006d445300313842003230200061
:1053dc0050726f00672052006573200044696700ab
:1053ec002054680065726d0044533100383232002d
:1053fc00204563006f6e20004469670020546800ec
:10540c0065726d0044533200343034002045630023
:10541c006f6e7200616d200074696d006520430031
:10542c0068697000445332003433310020314b0032
:10543c002045450050524f004d556e006b6e6f006d
:10544c00776e2000646576006963650050574d00e7
:10545c0020646900736162006c656400314b480024
:10546c007a2d34002c303000304b48007a2050001c
:10547c00574d46007265710075656e0063792000aa
:10548c00696e20004b487a002050720065736300ef
:10549c00616c65003a505200323a440075747900e0
:1054ac0020637900636c650020696e002025200064
:1054bc0050574d00206163007469760065455200b9
:1054cc00524f52003a205000574d20006163740037
:1054dc00697665002c20670020746f0020646900d9
:1054ec00736162006c65410055582000467265007e
:1054fc00717565006e6379003a20410055582000a3
:10550c00494e500055542f0048492d005a41550022
:10551c00582048004947480041555800204c4f003e
:10552c0057564f004c544d004554450052204d00e9
:10553c004f444500564f4c00544147004520500005
:10554c00524f4200453a200056457200726f72006d
:10555c0028292000406c69006e653a0020407000dc
:10556c00676d730070616300653a200062797400a6
:10557c0065732e00546f6f00206c6f006e672100f6
:10558c0053796e007461780020657200726f72003e
:10559c004e6f200045455000524f4d004572610042
:1055ac0073696e0067646f006e6553006176690005
:1055bc006e672000746f2000736c6f0074204900bc
:1055cc006e7661006c69640020736c006f744c0023
:1055dc006f616400696e6700206672006f6d200059
:1055ec00736c6f007420450052524f00523a2000e9
:1055fc00636f6d006d616e00642068006173200044
:10560c006e6f200065666600656374002068650037
:10561c0072654100434b4e0041434b0049324300fd
:10562c002053540041525400204249005449320046
:10563c0043205300544f500020424900544932003b
:10564c0043206d006f6465003a0d0a0020312e0076
:10565c0020536f0066747700617265000d0a20009c
:10566c00322e20004861720064776100726553002d
