:020000040000fa
:080000000002040000000000f2
:020000040000fa
:040008004c030000a5
:020000040000fa
:04000c004c030000a1
:020000040000fa
:040010004c0300009d
:020000040000fa
:040014004c03000099
:020000040000fa
:040018004c03000095
:020000040000fa
:04001c004c03000091
:020000040000fa
:040020004c0300008d
:020000040000fa
:040024004c03000089
:020000040000fa
:040028004c03000085
:020000040000fa
:04002c004c03000081
:020000040000fa
:040030004c0300007d
:020000040000fa
:040034004c03000079
:020000040000fa
:040038004c03000075
:020000040000fa
:04003c004c03000071
:020000040000fa
:040040004c0300006d
:020000040000fa
:040044004c03000069
:020000040000fa
:040048004c03000065
:020000040000fa
:04004c004c03000061
:020000040000fa
:040050004c0300005d
:020000040000fa
:04005400b473000081
:020000040000fa
:04005800dc73000055
:020000040000fa
:04005c004c03000051
:020000040000fa
:040060004c0300004d
:020000040000fa
:040064004c03000049
:020000040000fa
:040068004c03000045
:020000040000fa
:04006c004c03000041
:020000040000fa
:040070004c0300003d
:020000040000fa
:040074004c03000039
:020000040000fa
:040078004c03000035
:020000040000fa
:04007c004c03000031
:020000040000fa
:040080004c0300002d
:020000040000fa
:040084004c03000029
:020000040000fa
:040088004c03000025
:020000040000fa
:04008c004c03000021
:020000040000fa
:040090004c0300001d
:020000040000fa
:040094004c03000019
:020000040000fa
:040098004c03000015
:020000040000fa
:04009c004c03000011
:020000040000fa
:0400a0004c0300000d
:020000040000fa
:0400a4004c03000009
:020000040000fa
:0400a8004c03000005
:020000040000fa
:0400ac004c03000001
:020000040000fa
:0400b0004c030000fd
:020000040000fa
:0400b4004c030000f9
:020000040000fa
:0400b8004c030000f5
:020000040000fa
:0400bc004c030000f1
:020000040000fa
:0400c0004c030000ed
:020000040000fa
:0400c4004c030000e9
:020000040000fa
:0400c8004c030000e5
:020000040000fa
:0400cc004c030000e1
:020000040000fa
:0400d0004c030000dd
:020000040000fa
:0400d4004c030000d9
:020000040000fa
:0400d8004c030000d5
:020000040000fa
:0400dc004c030000d1
:020000040000fa
:0400e0004c030000cd
:020000040000fa
:0400e4004c030000c9
:020000040000fa
:0400e8004c030000c5
:020000040000fa
:0400ec004c030000c1
:020000040000fa
:0400f0004c030000bd
:020000040000fa
:0400f4004c030000b9
:020000040000fa
:0400f8004c030000b5
:020000040000fa
:0400fc004c030000b1
:020000040000fa
:040100004c030000ac
:020000040000fa
:040104004c030000a8
:020000040000fa
:040108004c030000a4
:020000040000fa
:04010c004c030000a0
:020000040000fa
:040110004c0300009c
:020000040000fa
:040114004c03000098
:020000040000fa
:040118004c03000094
:020000040000fa
:04011c004c03000090
:020000040000fa
:040120004c0300008c
:020000040000fa
:040124004c03000088
:020000040000fa
:040128004c03000084
:020000040000fa
:04012c004c03000080
:020000040000fa
:040130004c0300007c
:020000040000fa
:040134004c03000078
:020000040000fa
:040138004c03000074
:020000040000fa
:04013c004c03000070
:020000040000fa
:040140004c0300006c
:020000040000fa
:040144004c03000068
:020000040000fa
:040148004c03000064
:020000040000fa
:040208004c030000a3
:020000040000fa
:04020c004c0300009f
:020000040000fa
:040210004c0300009b
:020000040000fa
:040214004c03000097
:020000040000fa
:040218004c03000093
:020000040000fa
:04021c004c0300008f
:020000040000fa
:040220004c0300008b
:020000040000fa
:040224004c03000087
:020000040000fa
:040228004c03000083
:020000040000fa
:04022c004c0300007f
:020000040000fa
:040230004c0300007b
:020000040000fa
:040234004c03000077
:020000040000fa
:040238004c03000073
:020000040000fa
:04023c004c0300006f
:020000040000fa
:040240004c0300006b
:020000040000fa
:040244004c03000067
:020000040000fa
:040248004c03000063
:020000040000fa
:04024c004c0300005f
:020000040000fa
:040250004c0300005b
:020000040000fa
:040254004c03000057
:020000040000fa
:040258004c03000053
:020000040000fa
:04025c004c0300004f
:020000040000fa
:040260004c0300004b
:020000040000fa
:040264004c03000047
:020000040000fa
:040268004c03000043
:020000040000fa
:04026c004c0300003f
:020000040000fa
:040270004c0300003b
:020000040000fa
:040274004c03000037
:020000040000fa
:040278004c03000033
:020000040000fa
:04027c004c0300002f
:020000040000fa
:040280004c0300002b
:020000040000fa
:040284004c03000027
:020000040000fa
:040288004c03000023
:020000040000fa
:04028c004c0300001f
:020000040000fa
:040290004c0300001b
:020000040000fa
:040294004c03000017
:020000040000fa
:040298004c03000013
:020000040000fa
:04029c004c0300000f
:020000040000fa
:0402a0004c0300000b
:020000040000fa
:0402a4004c03000007
:020000040000fa
:0402a8004c03000003
:020000040000fa
:0402ac004c030000ff
:020000040000fa
:0402b0004c030000fb
:020000040000fa
:0402b4004c030000f7
:020000040000fa
:0402b8004c030000f3
:020000040000fa
:0402bc004c030000ef
:020000040000fa
:0402c0004c030000eb
:020000040000fa
:0402c4004c030000e7
:020000040000fa
:0402c8004c030000e3
:020000040000fa
:0402cc004c030000df
:020000040000fa
:0402d0004c030000db
:020000040000fa
:0402d4004c030000d7
:020000040000fa
:0402d8004c030000d3
:020000040000fa
:0402dc004c030000cf
:020000040000fa
:0402e0004c030000cb
:020000040000fa
:0402e4004c030000c7
:020000040000fa
:0402e8004c030000c3
:020000040000fa
:0402ec004c030000bf
:020000040000fa
:0402f0004c030000bb
:020000040000fa
:0402f4004c030000b7
:020000040000fa
:0402f8004c030000b3
:020000040000fa
:0402fc004c030000af
:020000040000fa
:040300004c030000aa
:020000040000fa
:040304004c030000a6
:020000040000fa
:040308004c030000a2
:020000040000fa
:04030c004c0300009e
:020000040000fa
:040310004c0300009a
:020000040000fa
:040314004c03000096
:020000040000fa
:040318004c03000092
:020000040000fa
:04031c004c0300008e
:020000040000fa
:040320004c0300008a
:020000040000fa
:040324004c03000086
:020000040000fa
:040328004c03000082
:020000040000fa
:04032c004c0300007e
:020000040000fa
:040330004c0300007a
:020000040000fa
:040334004c03000076
:020000040000fa
:040338004c03000072
:020000040000fa
:04033c004c0300006e
:020000040000fa
:040340004c0300006a
:020000040000fa
:040344004c03000066
:020000040000fa
:040348004c03000062
:020000040000fa
:10040000efa321000e7f22000e01880000000000f3
:10041000000020000000e000020032000001200087
:10042000200288000c00070060d92800010020008d
:1004300011000700000020000000e0000200320070
:1004400000000200000000009a8f0200000000007f
:100450000040da000000fe004440a900002a20000d
:100460000000e0000300320000002000a00188002e
:100470004440a80000000600910188008000780038
:100480000000eb0015003700e280400032a0b4000d
:100490009101ba00e280400032a0b4009102ba009b
:1004a000e280400032a0b4000002eb00472bde00e7
:1004b000f507b200602ce10004003a000059eb009f
:1004c0008301e900fdff3e00040037006128e100e0
:1004d000010032000082eb000b00070011c3ba00dc
:1004e0001101ba000604e00003003a000200e00037
:1004f000e5ff3a0000000600f607b200960188000a
:1005000082007800f5ff37003159ba008301e90015
:100510000c0032002159ba008301e90008003200c2
:100520000400e00003003a00e280400032a0b40082
:10053000f5ff370011d9ba008301e900faff3a004c
:100540008100e800e180400032a0b4000000060015
:10055000000000000000000000000000000000009b
:10056000000000000000000000000000000000008b
:10057000000000000000000000000000000000007b
:10058000000000000000000000000000000000006b
:10059000000000000000000000000000000000005b
:1005a000000000000000000000000000000000004b
:1005b000000000000000000000000000000000003b
:1005c000000000000000000000000000000000002b
:1005d000000000000000000000000000000000001b
:1005e000000000000000000000000000000000000b
:1005f00000000000000000000000000000000000fb
:1006000000000000000000000000000000000000ea
:1006100000000000000000000000000000000000da
:1006200000000000000000000000000000000000ca
:1006300000000000000000000000000000000000ba
:1006400000000000000000000000000000000000aa
:10065000000000000000000000000000000000009a
:10066000000000000000000000000000000000008a
:10067000000000000000000000000000000000007a
:10068000000000000000000000000000000000006a
:1006900000000000000000000040da000000fe0042
:1006a00003f0a200889fbe008a9fbe008c1f7800c6
:1006b0004a010700510133006450e1004f0032004d
:1006c0006420e1005200320003826c0007003b000e
:1006d0000905d0000306d000820f54000c065d000f
:1006e0000200390002003200890178000306780018
:1006f0008582550004003d000003fd008103fd00dc
:100700008502ea008b854200840f720002003b00e4
:1007100060001000e08018006011b8000005eb00d8
:100720007a28e1000a00390006007800c75ddd0084
:10073000f707b200878075002d00370082817100b5
:100740000a017800610560008180d1000080d3003b
:100750008502e900f9ff3b00060440008784480059
:1007600002003b0060041400e0841c000988a30020
:10077000070032008a81710082817100610164008a
:100780008904d1000884d3008b05e80017003700e6
:100790000978a30013003a000b00e00013003400b6
:1007a0008b05e9000804440089844c000a44740065
:1007b0000978a3000d003a000b00e00007003400a8
:1007c0008b05e9000804440089844c0001003a00cc
:1007d0000b0020000978a300f7ff32000001eb00b6
:1007e00002003700828171000a017800c000070012
:1007f0000cf0a70001f0a000090137006420e1001f
:1008000002003a00838f6c00090133000801be002a
:100810000200be0002013700889fbe008a9fbe0012
:100820008c1f7800ed000700f400330003866c0095
:100830006450e1002e0032006420e10033003200f9
:100840006150e1002f0032006120e10031003200f0
:1008500085855500eb07b000090020000804200042
:10086000050037000804440089844c000a00310068
:100870000603430087834b000001530081815b0026
:10088000f8ff33000203be000800a0000804440083
:1008900089844c00f6ff3900c639dd0083017300fe
:1008a00001003200130020008904d1000884d30025
:1008b0000998a300050032000800a7000300a0006b
:1008c0008904d1000884d3008b05e8008904d10095
:1008d0000884d3000001eb000281d20084000700ed
:1008e00001f0a1000cf0a70001f0a000cc0037003f
:1008f0006420e100ce0032000801be000200be000c
:10090000f7ff37006120e100c90032006000b80045
:10091000f3ff37000000200001f82700f0ff370048
:10092000140020000e023700f4ff2f000c023700e5
:100930000003be00940007006011b8000470a70017
:1009400007f0a10007f8a30017003a006509b100fd
:100950000d0032000d003500860220000628e1005f
:1009600003003500030028006000b8000200050005
:100970000000400081804800020149008381490055
:100980008502e900faff3a0000000600f88f4200f5
:10099000050034008100d1000080d3008502e8000a
:1009a000fcff3a00000006006011b8008000eb0078
:1009b000000005000001be00730007000470a700de
:1009c00003f0a10003f8a30013003a006509b10089
:1009d00010003200090035006928e10002003500ee
:1009e0000100280000000500000040008180480050
:1009f0008502e900fcff3a0000000600f88f420083
:100a0000050035008100d1000080d3008502e80098
:100a1000fcff3a00000006008000eb00000005002b
:100a20004f89de0082017800e8013700889fbe0010
:100a30008a9fbe000082700004027100048271006f
:100a4000260032000004be000200be006011b800a3
:100a50006b092000950220000182cf000a003900b6
:100a60000541b1000082cf00070039000541b10007
:100a70000982cf00040039000541b1000882cf008f
:100a8000010039000541b100054252001200320058
:100a90000a003b0082817100610164008100d10085
:100aa0000080d3008984d3000884d3008b05e8003c
:100ab0000442e800f7ff3a0007003700080444004a
:100ac00089844c0000004800818048008b05e900c3
:100ad0000442e900f9ff3a00050007004f05be0097
:100ae0004f04be00000006006011b800cfff3700c1
:100af00081002000618055000b003d000b002000ac
:100b000061fe2f000100e1001d00340082817100b0
:100b1000610164008904d1000884d3000000e8006a
:100b2000faff3a00710020006100640003007000c9
:100b3000020060000900320061044400e0844c00bf
:100b40000988a500050032008b05e8006808e1006f
:100b500002003a008904d1000884d300f20f20007b
:100b60000258e10005003d00c75ddd00f907b20055
:100b70008980750008007800000006000bf8270047
:100b80008b00780000000500c70ade00f107b20004
:100b9000f50fb20008003200e1cf4200020032003f
:100ba0000170a00024000500810f700001003200d8
:100bb0000408050044000500810f700002003a009f
:100bc000140005008502e9000000400081c04800d3
:100bd000fcff3b000170a000240005000004be00e3
:100be000e9ff07000003be000405be000200be00ce
:100bf000e5ff0700844f7500000006000200be00fc
:100c00006450e100050036006420e1000200360077
:100c10000968a30001003a000800be000160a000be
:100c20004f0678004f05be004f04be0000000600ce
:100c3000f0ff2f00f1ff2700f9ff3700889fbe006b
:100c40008a9fbe008c1f7800e4ff0700ebff330093
:100c500003866c006450e100240032006420e1004f
:100c6000270032006150e100220032006120e100e3
:100c7000210032008b854200eb07b1000134b8003f
:100c8000003ab8000804420089844a00013ab800da
:100c90000030b8008880400009014a000400330099
:100ca0000000400081804800020149008b05e900f6
:100cb000c909dd008301700001003200130020002b
:100cc000c814de004814dd004709de001200b2003f
:100cd000c808de000884700085ff070001f0a1004d
:100ce0000cf0a70001f0a000cdff37006120e1006b
:100cf000cfff32000801be000200be00f7ff370040
:100d00006150e100fcff3a00c9ff37006022b800e3
:100d1000060220000000d0008180d2000482d200b0
:100d20008582d2000000a0000202520083825a0095
:100d3000030031000202420083824a000000a10049
:100d40000603e900f3ff3a0000000600efff07008a
:100d50000400be0000000600889fbe008a9fbe00ff
:100d600030044200b0844a0030054b0090854b00af
:100d70006000b1000898be000a90be000440e10087
:100d800005c8e10006d0e10007d8e100020031000b
:100d9000680040001008e8004f05be004f04be0088
:100da00000000600889fbe008a9fbe003004be007f
:100db0002005be000418540005985c0006185d006c
:100dc00007985d00110020000440e10005c8e10023
:100dd00006d0e10007d8e100010039008000eb00f7
:100de000108810004f05be004f04be000000060032
:100df0001200fa00889fbe008a9fbe008c9fbe0032
:100e0000e0b79f00f1b79f0082bf9f0093bf9f0094
:100e10000605be000404be000000eb00d0b79f0032
:100e2000c0b79f00b0b79f00a0b79f0090b79f00ca
:100e30000006eb005fb19700cfb097008201410040
:100e40003fb097000200e00004003d0037000700bb
:100e50007e805700c0ff0700030037003300070003
:100e60007e805700cfff0700dfb697000d00e0003f
:100e70000c0035006fb29700ffb297000fbb9700d0
:100e80009fbb970010002000010020006011b800f7
:100e90000002720081827200020373008383730078
:100ea0001b0007000c06e80001042000810f56001b
:100eb000e0ff3a000d00e00004003d000802be0023
:100ec0000a03be007e805700a3ff07005fa89700bb
:100ed0000000e00005003a001fb29700afb2970093
:100ee0003fb39700cfb39700090007006fb097009a
:100ef000ffb097000fb997009fb997004f06be004b
:100f00004f05be004f04be000080fa00000006003e
:100f10000100070000000600a4b79f00b5b79f00be
:100f2000c6b79f00d7b79f00000006004f09de003c
:100f300082817100b3b79f004f01de0081804000c5
:100f400082807000a1b79f008fb097004f09de002c
:100f5000000040000200700090b79f007fa897003b
:100f60004f01de00818040008280700081b79f00c9
:100f70000d0007004f3ade00000040000400700042
:100f8000f0af9f00080007000402420085824a007b
:100f900006034b0087834b00dfff07000802be00fb
:100fa0000a03be00000006002fb29700bfb29700f0
:100fb0004fb39700dfb3970000000600881f78004a
:100fc00018002000881f780089ff07008f87e9003c
:100fd0004f04780000000600801feb0084ff07002c
:100fe0008f87e90000000600889fbe008a9fbe0030
:100ff000e00f5000e08f5800e00f5900e08f5900db
:101000000c003d006044b8006055b800000054007a
:1010100081805c0002015d0083815d00180020007a
:101020001500070008003d00180007000004eb0051
:10103000050037000004eb000f00070002003d0030
:101040001200070018002000dcff07000800e00085
:10105000060032006022b8006033b8000000520081
:1010600081805a0002015b0083815b004f05be0056
:101070004f04be0000000600e00f5200e08f5a004f
:10108000e00f5b00e08f5b00000006006044b800ea
:101090006055b8000402540085825c0006035d00c0
:1010a00087835d0000000600889fbe008a9fbe0007
:1010b0008c1f7800e00f5000e08f5800e00f5900bf
:1010c000e08f59000d003d006044b8006055b80045
:1010d0000000540081805c0002015d0083815d009e
:1010e0001c0020000820e10009a8e1000ab0e1008e
:1010f0000bb8e1000d003d00080037000006eb00d2
:10110000e00f5200e08f5a00e00f5b00e08f5b00c1
:1011100006003d006044b8006055b8000402540069
:1011200085825c0006035d0087835d00aaff0700df
:101130000c00e000060032006022b8006033b80006
:101140000000520081805a0002015b0083815b0035
:101150004f0678004f05be004f04be000000060099
:10116000889fbe008a9fbe00841f78009bfe0700f8
:101170004f00780011003300f0ff2f00838f6c00c8
:1011800006003b00040565000a00a70008003700c0
:1011900009f0a6001000200008003700820f54005c
:1011a000838f5c00030039001000200001003e0026
:1011b0000000200009f0a7000000ea004f05be0073
:1011c0004f04be000000e00000000600881f780009
:1011d000030478000300e00007003d0060001000f9
:1011e000e080180060011900e081190002003b0056
:1011f00001f02d00030037000cfe070008f0a700e7
:0c12000001f0a0004f0478000000060080
:020000040000fa
:10120c003e00000008200000080000001b5b0000ee
:10121c00440000001b5b000000440000001b0000a9
:10122c005b430000001b00005b3200004b0d000014
:10123c0000430000000000001b5b00003244000073
:10124c0000570000617200006e6900006e670000bc
:10125c003a2000006e6f0000207600006f6c0000da
:10126c007461000067650000206f00006e200000b4
:10127c0056700000756c00006c750000702000004a
:10128c00706900006e000000203d0000200000008e
:10129c00436c00007574000063680000206500005a
:1012ac006e6700006167000065640000212100008a
:1012bc002100000056520000454700002074000039
:1012cc006f6f0000206c00006f7700002c20000076
:1012dc0069730000207400006865000072650000ee
:1012ec002061000020730000686f00007274000021
:1012fc003f000000436c0000757400006368000040
:10130c002064000069730000656e000067610000d6
:10131c00676500006421000021210000002e000000
:10132c00203c0000002e000020000000546f000044
:10133c0020660000696e00006973000068200000e0
:10134c007365000074750000702c000020730000a1
:10135c0074610000727400002075000070200000a1
:10136c007468000065200000706f00007765000055
:10137c007220000073750000707000006c69000032
:10138c00657300002077000069740000682000007d
:10139c00636f00006d6d0000616e00006420000042
:1013ac0027570000270d00000a0000002000000055
:1013bc000d0a00002800000078000000293e000003
:1013cc00004200007573000020500000697200009c
:1013dc0061740000652000007633000000200000de
:1013ec00636c00006f6e000065200000772f00001a
:1013fc00646900006666000065720000656e00009e
:10140c00742000005049000043000000436f0000ae
:10141c006d6d0000756e000069740000792000008d
:10142c0046690000726d0000776100007265000073
:10143c0020760000372e0000302000002d20000008
:10144c00676f00006f2e0000676c00002f670000b4
:10145c00437a0000516e000057200000002000006d
:10146c0028320000344600004a36000034470000a1
:10147c004130000030000000342000000032000039
:10148c002000000041330000004200003400000046
:10149c00423500000042000038000000554e0000ac
:1014ac004b0000002900000049090000004f00001b
:1014bc000900000048090000004c00000900000071
:1014cc00456e00007465000072200000726100001f
:1014dc0077200000766100006c750000652000002c
:1014ec00666f0000722000004252000047000000ae
:1014fc0014340000040d00008206000040030000bc
:10150c00a0010000cf0000006700000044000000b4
:10151c00220000007f00000000000000000000001e
:10152c00000000002c010000000000005802000028
:10153c0000000000b0040000000000006009000082
:10154c0000000000c0120000000000008025000018
:10155c00000000004038000000000000004b0000bc
:10156c0000000000807000000000000000960000e9
:10157c0000000000c0da00000000000000e10000e4
:10158c000000000000c200000100000000f4000098
:10159c000100000000e8000003000000143400000b
:1015ac00040d00008206000040030000a0010000b2
:1015bc00cf0000007f000000670000004400000026
:1015cc0022000000415200005431000000000000d5
:1015dc00204800007a00000046720000657100008f
:1015ec00756500006e6300006965000073200000e3
:1015fc003c200000314800007a200000617200009d
:10160c00652000006e6f00007420000073750000f0
:10161c00707000006f72000074650000642e000092
:10162c0000000000001800001c1d0000436f0000ab
:10163c00756c0000646e000027740000206b0000c5
:10164c00656500007020000075700000000000004f
:10165c00001800001c1d0000030b0000131b0000f1
:10166c0053500000493100000000000030780000a9
:10167c0030310000323300003435000036370000c2
:10168c003839000041420000434400004546000048
:10169c003062000000300000303000002c000000f0
:1016ac0030300000000000000142000050760000c5
:1016bc003300000021000000001000000023000097
:1016cc00000f0000424000004005000041020000f5
:1016dc0000310000414c00005300000000290000c4
:1016ec0000200000570000002052000000490000bc
:1016fc003243000031000000080800000808000018
:10170c00080000000000000042420000494f0000a9
:10171c003100000052410000573100000000000071
:10172c00353f000062610000000000004f430000e4
:10173c004431000000000000000000000000000028
:020000040000fa
:10174c002000fa000000eb00000f78000000eb0016
:10175c0010c488000000eb0000c4880001c48000a5
:10176c00210f98000000eb00300f98000000eb00f8
:10177c00400f98000000eb00b0cf88000000eb0099
:10178c00000f9800408821008040eb000148780051
:10179c000000eb00100f98000000eb001007980001
:1017ac000000eb00200798000000eb0030079800c9
:1017bc000040eb00205f98000040eb00305f980089
:1017cc000000eb0060079800150037000000eb00ec
:1017dc00700798000c0037006e00900052882100b2
:1017ec007800b900800078007e00900000804000f6
:1017fc00000041008040eb00014878007e00900022
:10180c000000e800700798007e009000ff0f500069
:10181c00f1ff34006e0090000000e80060079800b3
:10182c006e009000e20f5000e8ff34000000eb0067
:10183c0070c68800b1cf8000000320000088b9007a
:10184c00000078008102200080804000008d210083
:10185c0000804000f26d0200000000006090280043
:10186c00f26d0200000000002a04370070c68000f0
:10187c000000e0006500320070c680000000e90046
:10188c0070c688000000eb00700798001d00370040
:10189c0002c4800070c680007800b9008000780017
:1018ac007e0090000080400051882100e1407800cb
:1018bc00008021000170790070c680007800b900aa
:1018cc00800078007e00900000804000518821004c
:1018dc00614078002c7302000000000000c48000fe
:1018ec000000e80000c488007e0090000000e800c2
:1018fc007007980001c48000f00720000080600091
:10190c0000c4880070c680007800b90080007800a0
:10191c007e009000008040005188210061407800da
:10192c000004e000daff3a000000eb0070c688000b
:10193c0037003700809c2100104078006440600024
:10194c000004e00032003200b1cf80000003200020
:10195c000088b90000007800fa004000008d2100da
:10196c000080400010007800000001000004e0003e
:10197c0027003200b1cf8000000320000088b9009e
:10198c00000078008102200080804000008d210042
:10199c0000804000f26d0200000000006090280002
:1019ac00f26d02000000000011c4800000c4800031
:1019bc00808f50001600320010c480007007980011
:1019cc000d003700018021007e0090000080400057
:1019dc00104078002c73020000000000fe00900004
:1019ec00f007200000806000700798007e009000d7
:1019fc000000e80070079800fe00900000c4800012
:101a0c00808f5000efff3a0001003700000000000b
:101a1c0036720200000000000004e000c5ff320036
:101a2c005e730200000000000004e00003003200be
:101a3c006a73020000000000b60337000673020050
:101a4c0000000000405f98004e5890000080fb00a2
:101a5c00cf80de00f207200003002000820f500030
:101a6c00838f580031033e000060010026033700cd
:101a7c00d90237004f0137002c033700d70037004d
:101a8c00f202370065013700280337007700370072
:101a9c0026033700090337002403370023033700dc
:101aac000603370008023700200337006d013700aa
:101abc001e0337001d0337001c0337001b033700c0
:101acc001a033700190337001803370017033700c0
:101adc0016033700150337000101370013033700d5
:101aec001203370011033700100337000f033700c0
:101afc000e0337000d0337000c0337000b033700c0
:101b0c000a033700090337000803370007033700bf
:101b1c0006033700050337000403370003033700bf
:101b2c00020337000103370000033700ff023700c0
:101b3c00fe023700fd023700fc023700fb023700c3
:101b4c00fa023700f9023700f8023700f7023700c3
:101b5c00f6023700f5023700f4023700f3023700c3
:101b6c00f2023700f1023700f0023700ef023700c3
:101b7c00ee023700ed023700ec023700eb023700c3
:101b8c00ea023700e9023700e8023700e7023700c3
:101b9c00e6023700e5023700e4023700e3023700c3
:101bac00e2023700e1023700e0023700df023700c3
:101bbc00de023700dd023700dc023700db023700c3
:101bcc00da023700d9023700d8023700d7023700c3
:101bdc00d6023700d5023700d4023700d3023700c3
:101bec00d2023700d1023700d0023700cf023700c3
:101bfc00ce023700cd023700cc023700cb023700c3
:101c0c00ca023700c9023700c8023700c7023700c2
:101c1c00c6023700c5023700c4023700c3023700c2
:101c2c00c2023700c1023700c0023700bf023700c2
:101c3c00be023700bd023700bc023700bb023700c2
:101c4c00ba023700b9023700b8023700b7023700c2
:101c5c00b6023700b5023700b4023700b3023700c2
:101c6c00b2023700b10237005c00370010c48000ac
:101c7c00ae089000808f50005400320000c48000e9
:101c8c00ae089000808f50000f003a0000c4800016
:101c9c008000e900f00720000080600000c488008c
:101cac0000c48000018021000041eb0082707800ac
:101cbc0001c48000210f980080902800f26d020072
:101ccc0000000000130337000000eb0060079800d1
:101cdc002e0890008000e900f007200000806000d2
:101cec00200f9800c0902800f26d02000000000048
:101cfc00ae08900071079800200037007e0090001d
:101d0c000000e80001802100e14078000280210001
:101d1c007e00900000004100014878000180210005
:101d2c007e00900000804000104078000004e0002d
:101d3c0007003200018021007e00900000804000ee
:101d4c00104078002c7302000000000003003700e4
:101d5c0000c2b3002c730200000000006e00900063
:101d6c000000e800600798007e0090008000e8000a
:101d7c00f00720000080600070079800fe009000c3
:101d8c0000c48000808f5000dcff3a0000c480004b
:101d9c008000e900f00720000080600000c488008b
:101dac0000912800f26d0200000000006e0090000f
:101dbc000040780084700200000000003091280080
:101dcc00f26d020000000000d202370070c0b300b8
:101ddc002c73020000000000ce02370000c480000b
:101dec00ae089000808f5000390032000000eb00ec
:101dfc0060079800ae08900071079800200037002b
:101e0c007e0090000000e80001802100e140780095
:101e1c00028021007e009000000041000148780003
:101e2c00018021007e00900000804000104078006e
:101e3c000004e00007003200018021007e009000c9
:101e4c0000804000104078002c730200000000005d
:101e5c000300370000c2b3002c7302000000000026
:101e6c006e0090000000e800600798007e00900073
:101e7c008000e800f00720000080600070079800e8
:101e8c00fe00900000c48000808f5000dcff3a0000
:101e9c0000c480008000e900f00720000080600092
:101eac0000c4880000912800f26d020000000000c0
:101ebc006e0090000040780084700200000000006a
:101ecc0030912800f26d02000000000091023700f2
:101edc0070c0b3002c730200000000008d023700ac
:101eec000673020000000000405f9800ce5890007e
:101efc00b0c5b30080cf50007f023a0006730200d9
:101f0c0000000000405f98004e5890000080fb00dd
:101f1c0011042000810f50005100320011042000e8
:101f2c00810f500007003c0011032000810f50006e
:101f3c000e00320041032000810f500013003200cc
:101f4c007402370031042000810f5000320032003f
:101f5c0031042000810f5000da00350041042000cc
:101f6c00810f5000120032006a0237000673020023
:101f7c0000000000405f9800ce589000e0c7b3000e
:101f8c0080cf500093013200080037000673020026
:101f9c0000000000405f9800ce589000e0c7b300ee
:101fac0080cf5000a8013200000000005902370019
:101fbc00000000001e089000e40f500005003400e3
:101fcc004e870200000000000000eb00100f98008c
:101fdc005002370010c48000ae089000808f500073
:101fec00090032002e0890008000e900f007200064
:101ffc0000806000200f9800c0902800f26d020055
:10200c00000000004302370070c0b3002c730200c4
:10201c00000000003f0237000000000000c48000f8
:10202c00ae089000808f5000090032002e089000fe
:10203c008000e800f007200000806000200f98006e
:10204c0050912800f26d02000000000031023700b0
:10205c0070c0b3002c730200000000002d0237008a
:10206c00000000000000eb00400f980010c480003e
:10207c000000e90080007800f0072000008060007c
:10208c007007980083003700018021007e009000cb
:10209c0000804000104078000004e00078003a0016
:1020ac007e0090008000e900f007200000806000b6
:1020bc0001802100614078000004e00070003200d3
:1020cc004e0890000000e800400f9800ce089000e9
:1020dc003e089000808f5000690036003e0890004a
:1020ec000000e800300f980011c4800000c480008c
:1020fc00808f5000120032000900370000c48000ad
:10210c00018021000041eb008270780000c4800047
:10211c008000e900f00720000080600000c4880007
:10212c0001c4800010c48000808f5000f3ff3a007f
:10213c0000c48000018021000041eb008270780017
:10214c007e0090008000e900f00720000080600015
:10215c006007980011003700018021006e0090008c
:10216c0000804000104078000004e00006003a00b7
:10217c006e0090008000e800f007200000806000f6
:10218c00000f9800090037006e0090008000e900f5
:10219c00f00720000080600060079800ee009000bf
:1021ac0000c48000808f5000ebff3a009091280013
:1021bc00f26d020000000000b1cf8000000320008f
:1021cc000088b90000007800810220008080400067
:1021dc00008d210000804000f26d02000000000024
:1021ec0060902800f26d0200000000008e08900044
:1021fc006107980017003700018021006e009000e5
:10220c0000804000104078002c7302000000000099
:10221c0000c4800002802100ee009000810041008b
:10222c0011417800018021008270780000c4800088
:10223c008000e800f00720000080600000c48800e7
:10224c006e0090008000e800f00720000080600025
:10225c0060079800ee0090007e009000808f500088
:10226c00e5ff3a0000c48000018021000041eb0032
:10227c008270780001c48000210f9800090037009b
:10228c007e0090008000e900f007200000806000d4
:10229c0070079800fe00900000c48000808f5000f2
:1022ac0079ff3a00fe00900000c48000808f50003f
:1022bc0093013a0070c0b3002c73020000000000c0
:1022cc0094013700000000000000eb00400f980064
:1022dc0010c480000000e90080007800f0072000a6
:1022ec000080600070079800840037000180210096
:1022fc007e00900000804000104078000004e00058
:10230c0079003a007e0090008000e900f007200080
:10231c000080600001802100614078000004e00032
:10232c00710032004e0890000000e800400f980049
:10233c003e0890008000e9004e089000808f50000d
:10234c0069003a003e0890000000e900300f980048
:10235c0011c4800000c48000808f50001200320035
:10236c000900370000c48000018021000041eb000f
:10237c008270780000c480008000e900f007200023
:10238c000080600000c4880001c4800010c480007c
:10239c00808f5000f3ff3a0000c4800001802100c0
:1023ac000041eb00827078007e0090008000e90014
:1023bc00f0072000008060006007980011003700d3
:1023cc00018021006e0090000080400010407800d9
:1023dc000004e00006003a006e0090008000e80067
:1023ec00f007200000806000000f98000900370003
:1023fc006e0090008000e900f00720000080600073
:10240c0060079800ee00900000c48000808f5000a0
:10241c00ebff3a0090912800f26d020000000000e2
:10242c00b1cf8000000320000088b90000007800c4
:10243c008102200080804000008d2100008040003f
:10244c00f26d02000000000060902800f26d0200a6
:10245c00000000008e0890006107980017003700fc
:10246c00018021006e009000008040001040780038
:10247c002c7302000000000000c4800002802100c8
:10248c00ee00900081004100114178000180210094
:10249c008270780000c480008000e800f007200003
:1024ac000080600000c488006e0090008000e8008e
:1024bc00f00720000080600060079800ee0090009c
:1024cc007e009000808f5000e5ff3a0000c4800031
:1024dc00018021000041eb008270780001c4800073
:1024ec00210f9800090037007e0090008000e90061
:1024fc00f00720000080600070079800fe0090003c
:10250c0000c48000808f500078ff3a00fe009000dd
:10251c0000c48000808f5000fb003a003e08900001
:10252c00e10f500027003a0090912800f26d020054
:10253c0000000000b1cf8000000320000088b9002b
:10254c00000078008102200080804000008d210076
:10255c0000804000f26d0200000000006090280036
:10256c00f26d0200000000000900370000c480007a
:10257c00018021000041eb008270780000c48000d3
:10258c008000e900f00720000080600000c4880093
:10259c0001c4800010c48000808f5000f3ff3a000b
:1025ac0000c48000018021000041eb0082707800a3
:1025bc0001c48000210f98000000eb00300f980040
:1025cc00d400370070c0b3002c7302000000000070
:1025dc00d00037000000000010c48000ae0890004e
:1025ec00808f50001400320010c48000ae089000a0
:1025fc000080500080007800f00720000080600010
:10260c006007980000912800f26d020000000000a5
:10261c006e00900000407800847002000000000002
:10262c0030912800f26d02000000000011c48000ff
:10263c00210f9800b700370070c0b3002c73020054
:10264c0000000000b30037000000000000c4800050
:10265c00ae089000808f50001400320001c480003e
:10266c002e0890000080500080007800f0072000b9
:10267c00008060006007980000912800f26d020055
:10268c00000000006e009000004078008470020092
:10269c0000000000f0912800f26d02000000000024
:1026ac0001c48000210f98009a00370070c0b3005d
:1026bc002c73020000000000960037001000200070
:1026cc00000f78000000eb00300f980000c4800071
:1026dc00018021000041eb008270780000c4800072
:1026ec008000e800f00720000080600000c4880033
:1026fc0001c48000210f980010922800166e020071
:10270c0000000000830037001e0890000000e80065
:10271c00100f98001e089000f40f50007c003a0037
:10272c0012740200000000007a00370000c4800020
:10273c008000e800f00720008080600010c480005a
:10274c00808f5000680032004e589000ff4f5000b0
:10275c0065003600ce589000e0c7b30080cf500023
:10276c0061003e0001c480002e089000808f500054
:10277c0013003a004e5890002c7302000000000029
:10278c0000c480004e5990000180210082707800b6
:10279c0000c480008000e800f0072000008060008a
:1027ac0000c4880000c48000018021000041eb00bf
:1027bc008270780001c48000210f9800550037000a
:1027cc0001c480002e08900000805000800078002a
:1027dc00f00720000080600060079800009128003e
:1027ec00f26d0200000000006e00900000407800c6
:1027fc008470020000000000f0912800f26d0200cd
:10280c000000000000c48000700798001c00370016
:10281c007e0090000000e80002802100fe00900085
:10282c008100410011417800018021008270780004
:10283c00018021007e009000008040001040780054
:10284c000004e00009003200018021007e009000ad
:10285c0000804000104078002c7302000000000043
:10286c0020922800f26d0200000000007e00900013
:10287c008000e900f00720000080600070079800dd
:10288c00fe0090002e0890000001e900f0072000e7
:10289c0000006100808f5000ddff3a004e58900020
:1028ac002c73020000000000ce5890000280210022
:1028bc002e08900000004100014878002e0890007e
:1028cc008000e800f007200000806000200f9800d6
:1028dc0000c480008000e800f00720000080600049
:1028ec0000c488000b00370070c0b3002c730200ca
:1028fc000000000007003700000000000500370052
:10290c000000000003003700000000000100370049
:10291c00000000001e0078000000e000d3fb320035
:10292c0000c480002007980010c480003007980075
:10293c000000eb00000f78000000eb00100798007f
:10294c00408821008040eb00014878000040eb00fb
:10295c00205f98000040eb00305f98005405370072
:10296c0010c480000180210061407800405f980015
:10297c004e5890000080fb00cf80de00e207200064
:10298c0003002000820f5000838f580009053e0081
:10299c00006001000b053700060537000505370000
:1029ac000405370003053700020537000105370021
:1029bc0000053700ff043700fe043700010537001f
:1029cc00fc043700fb043700fe043700f904370021
:1029dc00f8043700f7043700f6043700f504370025
:1029ec00f4043700f3043700f2043700f104370025
:1029fc00f0043700ef043700ee043700ed04370025
:102a0c00ec043700eb043700ea043700e904370024
:102a1c00e8043700eb043700c4043700ea0237003f
:102a2c00330137003d013700ff013700ed0137005e
:102a3c00e0043700c2023700de043700dd04370043
:102a4c00dc043700df0437006c04370087043700e0
:102a5c004e04370066033700650337006403370004
:102a6c0063033700620337006103370060033700ec
:102a7c005f0337005e0337005d033700cd0437007a
:102a8c00cc04370004023700cc003700c9043700ef
:102a9c00470037005001370042013700c5043700aa
:102aac006c003700cc013700c2043700c10437007a
:102abc00c0043700bf043700be043700bd04370024
:102acc00bc0437006d003700ba043700b904370076
:102adc00b804370093003700b6043700b50437004c
:102aec00e2013700b3043700b2043700b1043700f9
:102afc004f013700af043700ae043700ad04370088
:102b0c00140337002f043700250337006704370000
:102b1c0048043700a7043700150137002f00370091
:102b2c00420037009e013700a20437003100370005
:102b3c003300370016003700200037009d043700a3
:102b4c009c043700590037002200370099043700e5
:102b5c002400370061003700960437009f033700cc
:102b6c009404370093043700920437001f00370099
:102b7c006c0137008f0437008e0437008d0437004a
:102b8c00fd023700aa0037000f033700cb003700d7
:102b9c00780707000000e0008c043a0010c48000a5
:102bac003007980000c4800020079800900437007c
:102bbc00d48c0200000000008d043700c008070010
:102bcc00b0cf80000000e0008204320056090700fc
:102bdc0087043700d006070085043700920a0700e7
:102bec00830437006a0a070081043700dd090700f7
:102bfc007f0437005c5e0200000000007c0437009c
:102c0c00b0cf80000000e00005003a00d1012000a8
:102c1c00505a2000be8c02000000000074043700e3
:102c2c00fc5c02000000000071043700819c210054
:102c3c00114078000000a1000010a100804878002d
:102c4c0061012000a0572000be8c02000000000093
:102c5c0067043700819c2100114078000000a0001f
:102c6c000010a1008048780051012000005920007c
:102c7c00be8c0200000000005d043700819c210026
:102c8c00114078000030a00080487800c10120007d
:102c9c00e07e2000328c0200000000001092280020
:102cac00166e02000000000051043700819c2100c8
:102cbc00114078000030a10080487800b10120005c
:102ccc00307d2000328c02000000000010922800a1
:102cdc00166e02000000000045043700b0cf8000e3
:102cec000000e00005003a00d1012000505a2000fd
:102cfc00be8c0200000000003d043700cb62a9002e
:102d0c00c962a90051012000205c2000328c020015
:102d1c000000000010922800166e02000000000057
:102d2c0033043700b0cf80000000e00005003a000b
:102d3c00d1012000505a2000be8c0200000000007f
:102d4c002b043700809c21001040780070406000fc
:102d5c000004e00004003a0021022000f0e9200009
:102d6c00be8c020000000000c962a800cb62a90062
:102d7c0041012000705d2000328c02000000000038
:102d8c0010922800166e02000000000021e3a8003b
:102d9c00b0002000568a020000000000f104200060
:102dac00810f500003003e0070922800166e020046
:102dbc000000000021e3a9000d04370010c48000be
:102dcc008000e800f00720000080600010c488003c
:102ddc004206070040040700700798007e00900030
:102dec00ec70020000000000a0942800f26d0200bc
:102dfc00000000007e00900000407800847002000b
:102e0c0000000000a0942800f26d020000000000f9
:102e1c007e00900000407800426e0200000000002e
:102e2c0010922800166e020000000000f00337001c
:102e3c0010c480008000e800f007200000806000d3
:102e4c0010c48800250607002304070070079800ab
:102e5c007e009000004078000080fb00ea8b0200ae
:102e6c0000000000700798007e009000ec700200db
:102e7c0000000000a0942800f26d02000000000089
:102e8c007e0090000040780084700200000000007a
:102e9c00a0942800f26d0200000000007e0090005b
:102eac0000407800426e02000000000010922800e2
:102ebc00166e020000000000cd033700b0cf80007a
:102ecc000000e00005003a0011c0b30010c0b300d0
:102edc004884020000000000c5033700a101200057
:102eec00b05e2000be8c020000000000c003370062
:102efc005100200050602000be8c02000000000039
:102f0c00000000002a720200000000000004e00033
:102f1c00fcff32000000fe00b5033700648d020098
:102f2c00000000000004e000ac033200a10020000f
:102f3c00a0602000be8c02000000000040062000b3
:102f4c008a8b020000000000128a020000000000c0
:102f5c00000000002a720200000000000004e000e3
:102f6c00fcff320081bf2a0001400100a0033700a2
:102f7c005c0507000000e8006007980002003700bd
:102f8c0020640200000000006e0090000000e900c8
:102f9c00600798006e0090000000e000f8ff3a0017
:102fac00930337004f0507000000e8006007980006
:102fbc0002003700fe630200000000006e0090006b
:102fcc000000e900600798006e0090000000e0002f
:102fdc00f8ff3a0086033700420507000000e800be
:102fec00600798000b003700610120004061200051
:102ffc00328c02000000000042640200000000005d
:10300c00b86d02000000000010922800166e02003d
:10301c00000000006e0090000000e90060079800be
:10302c006e0090000000e000efff3a0070033700e4
:10303c00b0cf80000000e00005003a00d101200074
:10304c00505a2000be8c02000000000068033700bc
:10305c00c002a900c202a80021e3a80020002000a1
:10306c008a8b020000000000a0002000568a02009b
:10307c0000000000011b2000810f50001b003600d7
:10308c0090002000568a020000000000712b2000e6
:10309c00810f50001500360011012000a0622000a5
:1030ac00328c02000000000010922800166e020004
:1030bc0000000000b1cf8000000320000088b900a0
:1030cc00000078000102200080804000008d21006b
:1030dc00008040001000780000000100e0942800ff
:1030ec00166e0200000000000c003700c002a900a0
:1030fc00c202a90000962800166e02000000000013
:10310c0021012000b0632000328c0200000000007e
:10311c0010922800166e02000000000021e3a900a6
:10312c0033033700b0cf80000000e00005003a0008
:10313c00d1012000505a2000be8c0200000000007b
:10314c002b033700b1cf8000000320000088b900aa
:10315c00000078002102200080804000008d2100ba
:10316c00008040001000780000000100009828004a
:10317c00166e020000000000c002a900c202a900e5
:10318c0021012000b0632000328c020000000000fe
:10319c0010922800166e0200000000001403370085
:1031ac00f1002000c0362000328c0200000000002c
:1031bc00728a02000000000011002000b0372000cd
:1031cc00328c02000000000010922800166e0200e3
:1031dc000000000006033700848a02000000000093
:1031ec0003033700bf04070060079800610020004c
:1031fc0090652000328c0200000000006e009000f0
:10320c001c7002000000000021002000f06520006e
:10321c00be8c0200000000006e009000b28b020019
:10322c0000000000f2023700ae04070060079800af
:10323c006100200090652000328c0200000000002c
:10324c006e0090001c7002000000000021002000a5
:10325c0030ee2000be8c0200000000006e009000da
:10326c008a8b020000000000e1023700b0cf800022
:10327c000000e00005003a00d1012000505a200067
:10328c00be8c020000000000d902370072640200fc
:10329c0000000000d60237004088210011c0b300a6
:1032ac0001487800100020007007980010003700cb
:1032bc0011c480007e00900080804000f007200048
:1032cc000080600001802100e1407800e0c3b30081
:1032dc0080cf500003003a00408821008040eb0072
:1032ec00014878007e0090000000e800700798000c
:1032fc0011c480007e00900080804000f007200008
:10330c000080600001802100614078000004e00032
:10331c00e7ff3a007e009000fa0f500003003400e3
:10332c004088210011c0b30001487800408821007a
:10333c00104078000004a2000004e000a902320052
:10334c0010c480008000e800f007200000806000be
:10335c0010c48800e00207007007980011c48000b8
:10336c00f00720000080600001802100e14078001f
:10337c00d0c3b30080cf500042003a007e009000d2
:10338c000000e0003b0034007e009000e30f500092
:10339c0038003c0010c480008000e800f0072000da
:1033ac000080600010c488007e0090000000e900de
:1033bc00700798000000eb00600798000c003700c5
:1033cc007e009000528821007800b90080007800bf
:1033dc006e00900000804000000041008040eb0037
:1033ec00014878006e0090000000e800600798002b
:1033fc006e009000f70f5000f1ff34000000eb005e
:10340c00600798001300370010c480000180210071
:10341c00614178007e009000538821007800b9004b
:10342c00800078006e009000008040000080410019
:10343c00024878006e0090000000e80060079800d9
:10344c0010c480008000e800f007200000806000bd
:10345c0010c4880010c4800001802100e140780075
:10346c00e0c3b30080cf5000e7ff3a00000000003b
:10347c005f0237004088210011c0b300014878007a
:10348c005b0237007e0090000000e0001c003a0058
:10349c000000eb0060079800150037006e009000ec
:1034ac00004078000040e80084700200000000003a
:1034bc0050992800f26d0200000000005288210093
:1034cc006e0090007800b900000078000000410008
:1034dc00f26d02000000000060902800166e0200e1
:1034ec00000000006e0090000000e80060079800eb
:1034fc006e009000e20f5000e8ff34003c023700f1
:10350c007e0090000000e000090034007e00900076
:10351c00e30f500006003c0010922800166e0200cb
:10352c0000000000fe00900071c6880030023700d9
:10353c004088210011c0b300014878002c023700ec
:10354c0010c480008000e800f007200000806000bc
:10355c0010c4880060020700400798005f04070051
:10356c0011c48000f0072000008060000180210061
:10357c00e140780090c2b30080cf50000e003a00ba
:10358c00b1cf8000000320000088b9000000780053
:10359c00fc004000008d210000804000900078006d
:1035ac004e0090000100010010922800166e0200df
:1035bc00000000000e0237004088210011c0b3004b
:1035cc00014878000a0237004088210011c0b3007e
:1035dc000148780010002000700798001000370098
:1035ec0011c480007e00900080804000f007200015
:1035fc000080600001802100e140780020c2b3000f
:10360c0080cf500003003a00408821008040eb003e
:10361c00014878007e0090000000e80070079800d8
:10362c0011c480007e00900080804000f0072000d4
:10363c000080600001802100614078000004e000ff
:10364c00e7ff3a0040882100104078000004a200f7
:10365c000004e000e501320071002000106620003b
:10366c00328c02000000000020c2b3002c73020058
:10367c00000000002100370011c48000f00720007a
:10368c000080600010c4880010c4800001802100fc
:10369c00614078002c7302000000000010c4800010
:1036ac0001802100614078000000fb004007980079
:1036bc00809c210010407800684060000004e0000d
:1036cc00040032004e009000ea8b02000000000063
:1036dc0040079800b1cf8000000320000088b9009b
:1036ec0000007800e8004000008d210000804000c0
:1036fc00900078004e0090000100010010c4800082
:10370c000000e80010c4880011c48000f0072000fd
:10371c000080600001802100e140780020c2b300ed
:10372c0080cf5000d4ff3a0011c48000f007200075
:10373c000080600010c4880020c2b3002c7302000b
:10374c000000000010922800166e0200000000001d
:10375c00a7013700b1cf8000000320000088b9001a
:10376c0080007800008d210000804000100078005f
:10377c00000001009e013700b1cf80000003200043
:10378c000088b900000078008080e800008d2100de
:10379c000080400010007800000001009401370008
:1037ac00b1cf8000000320000088b9000000780031
:1037bc00e4004000008d21000080400010007800e3
:1037cc00000001008a013700b1cf80000003200007
:1037dc000088b90000007800e6004000008d210050
:1037ec0000804000100078000000010080013700cc
:1037fc007100200010662000328c020000000000d6
:10380c00b50107004007980010c480000000e900d3
:10381c0010c4880011c48000f007200000806000f4
:10382c0010c488002f0307000000e8006007980010
:10383c004b030700700f98007e0890000000e0001a
:10384c005c0032007e08900080407800709b210064
:10385c00014878007e089000e80f50000500340005
:10386c00819c2100114078000050a0008048780015
:10387c0050003700819c2100114078000050a100bd
:10388c00804878004b0037004e009000e28a02001e
:10389c0000000000809c2100104078000042b20023
:1038ac000004e00004003a00709b210010407800f6
:1038bc00e84f500009003a00809c2100104078002d
:1038cc000042b2000004e0000b003200709b2100ab
:1038dc0010407800f04f500007003200b0c3b30026
:1038ec002c73020000000000709b21001040780037
:1038fc008470020000000000809c210010407800c1
:10390c00684060000004e000040032004e009000ab
:10391c00ea8b02000000000040079800b1cf800045
:10392c00000320000088b90000007800e800400087
:10393c00008d210000804000900078004e00900027
:10394c00010001005007980000c2b3002c73020064
:10395c0000000000809c2100104078000044b20060
:10396c000004e0001300320061002000806620009b
:10397c00328c020000000000809c21001040780076
:10398c00684060000004e000040032005e0090001b
:10399c00ea8b020000000000500798005e009000c7
:1039ac00e28a02000000000000c2b3002c73020087
:1039bc00000000006e0090000000e9006007980015
:1039cc006e0090000000e000afff3a00109228005b
:1039dc00166e020000000000050137006100200097
:1039ec0080662000328c020000000000f702070005
:1039fc00305f9800bb0207000000e80060079800e9
:103a0c00d7020700700f98007e0890000000e000bd
:103a1c00100032007e08900080407800709b2100de
:103a2c00014878007e089000e80f50000500340033
:103a3c00819c2100114078000050a0008048780043
:103a4c0004003700819c2100114078000050a10037
:103a5c00804878003e5890000004e00039003200a5
:103a6c00a0cf8000205f98003e5890000080fb00a3
:103a7c000000e900a0cf880032003700b1cf8000f1
:103a8c00000320000088b90000007800ea00400024
:103a9c00008d210000804000100078000000010023
:103aac0050079800809c210010407800684060000e
:103abc000004e000040032005e009000ea8b02007b
:103acc0000000000500798005e009000e28a02009f
:103adc0000000000809c2100104078000042b200e1
:103aec000004e00004003a00709b210010407800b4
:103afc00e84f500009003a00809c210010407800eb
:103b0c000042b2000004e0000b003200709b210068
:103b1c0010407800f04f500007003200b0c3b300e3
:103b2c002c73020000000000709b210010407800f4
:103b3c00847002000000000000c2b3002c7302006d
:103b4c00000000006e0090000000e9006007980083
:103b5c006e0090000000e000c8ff3a003e58900054
:103b6c000004e000050032002e5890000080fb009d
:103b7c00a0cf88000040eb00305f98001092280026
:103b8c00166e020000000000990037008100200032
:103b9c00e0662000be8c020000000000b1cf800067
:103bac00000320000088b90000007800ec00400001
:103bbc00008d210000804000100078000000010002
:103bcc008b0037008100200060672000be8c020053
:103bdc0000000000b1cf8000000320000088b90075
:103bec0000007800ee004000008d210000804000b5
:103bfc0010007800000001007d003700e10020007b
:103c0c00e0672000be8c020000000000b1cf8000f5
:103c1c00000320000088b90000007800f00040008c
:103c2c00008d210000804000100078000000010091
:103c3c006f003700e1002000c0682000be8c02003d
:103c4c0000000000b1cf8000000320000088b90004
:103c5c0000007800f2004000008d21000080400040
:103c6c00100078000000010061003700c100200046
:103c7c00d0642000328c020000000000b1cf800024
:103c8c00000320000088b90000007800f400400018
:103c9c00008d210000804000100078000000010021
:103cac00b86d020000000000510037000d02070043
:103cbc0060079800d1002000a06a2000328c02001e
:103ccc00000000006e009000e28a0200000000007c
:103cdc006e0090000000e8006007980009003700b3
:103cec00b1cf8000000320000088b90000007800ec
:103cfc00f6004000008d210000804000100078008c
:103d0c00000001006e0090000000e90060079800c0
:103d1c006e0090000000e000f1ff3a0010922800c5
:103d2c00166e02000000000031003700ed010700a4
:103d3c000000e80060079800a1002000706b2000d4
:103d4c00328c0200000000000f003700b1cf800061
:103d5c00000320000088b90000007800f800400043
:103d6c00008d210000804000100078000000010050
:103d7c000080fb00b86d02000000000000c2b30020
:103d8c002c730200000000006e0090000000e9009f
:103d9c00600798006e0090000000e000ebff3a0016
:103dac0001012000a0692000be8c02000000000070
:103dbc000f0037004088210011c0b3000148780083
:103dcc000b00370000000000090037000000000065
:103ddc00070037000000000005003700000000005d
:103dec000300370000000000010037000000000055
:103dfc0010c480008000e800f00720000080600004
:103e0c0010c4880040882100104078000004e000b5
:103e1c002100320051012000106c2000328c020075
:103e2c0000000000be00900010c48000808f500085
:103e3c000800310010c48000804078003e009000e3
:103e4c000040780000c050008470020000000000a8
:103e5c000900370010c48000804078003e009000bc
:103e6c000040780080c0500000c8b30000c0400083
:103e7c008470020000000000408821008040eb00ac
:103e8c0001487800100020001007980010922800bc
:103e9c00166e02000000000011c4800000c48000f7
:103eac00808f500002003a0010002000100798008c
:103ebc001e0090000000e000a9fa32002e009000d5
:103ecc0010c488002e00900000c488000000eb0095
:103edc00000f780057f637000400fa000000eb00e2
:103eec00000f78000000eb001007980011c4800050
:103efc001e00780080804000f007200000806000e9
:103f0c0001802100e140780000c3b30080cf500055
:103f1c003c00340011c480001e00780080804000fa
:103f2c00f00720000080600001802100e140780053
:103f3c0090c3b30080cf500032003c0011c480000d
:103f4c001e00780080804000f00720000080600098
:103f5c0001802100614078000000fb000003b100eb
:103f6c00100798001e0fe800110037001e0090008b
:103f7c006a00b900000078001007980011c4800096
:103f8c001e00780080804000f00720000080600058
:103f9c0001802100614078000000fb000003b100ab
:103fac009e00900000804000100798001e0fe80053
:103fbc0011c480001e00780080804000f0072000b3
:103fcc000080600001802100e1407800f0c2b30065
:103fdc0080cf50002f01340011c480001e007800e7
:103fec0080804000f00720000080600001802100ec
:103ffc00e140780090c3b30080cf5000dbff340069
:10400c002d01370011c480001e0078008080400014
:10401c00f00720000080600001802100e140780062
:10402c0000c3b30080cf500015013a001e0fe8000a
:10403c0011c480001e00780080804000f007200032
:10404c000080600001802100e140780020c6b300b0
:10405c0080cf50000a00320011c480001e0078008e
:10406c0080804000f007200000806000018021006b
:10407c00e140780020c4b30080cf500027003a0004
:10408c001e0fe800100037001e00900000004000da
:10409c001007980011c480001e007800808040003a
:1040ac00f007200000806000018021006140780052
:1040bc000000fb000003b1009e0090000080400057
:1040cc00100798001e0fe80011c480001e00780035
:1040dc0080804000f00720000080600001802100fb
:1040ec00e140780010c3b30080cf5000e6ff3200ef
:1040fc0011c480001e00780080804000f007200072
:10410c000080600001802100e140780000c3b30012
:10411c0080cf5000dcff3200e700370011c4800074
:10412c001e00780080804000f007200000806000b6
:10413c0001802100e140780080c7b30080cf50009f
:10414c000a00320011c480001e00780080804000fc
:10415c00f00720000080600001802100e140780021
:10416c0080c5b30080cf500080003a001e0fe800dd
:10417c00410037001e0090004400dd00100798003d
:10418c0011c480001e00780080804000f0072000e1
:10419c000080600001802100e1407800f0c2b30093
:1041ac0080cf50001700340011c480001e0078002e
:1041bc0080804000f007200000806000018021001a
:1041cc00e140780090c3b30080cf50000d003c005c
:1041dc0011c480001e00780080804000f007200091
:1041ec000080600001802100614078000000fb002d
:1041fc000003b1009e009000008040001007980062
:10420c001c00370011c480001e0078008080400024
:10421c00f00720000080600012c480009e0078002f
:10422c0001014100f10720008100610002802100a2
:10423c0062c1780001c2b30001417100018021000c
:10424c008270780011c480001e00780080804000cd
:10425c00f0072000008060000180210061407800a0
:10426c000000fb007005b1009e0090000080400033
:10427c00100798001e0fe80011c480001e00780083
:10428c0080804000f0072000008060000180210049
:10429c00e1407800f0c2b30080cf50000a00340037
:1042ac0011c480001e00780080804000f0072000c0
:1042bc000080600001802100e140780090c3b300d1
:1042cc0080cf5000abff340011c480001e0078007a
:1042dc0080804000f00720000080600001802100f9
:1042ec00e140780000c4b30080cf50000a003400d5
:1042fc0011c480001e00780080804000f007200070
:10430c000080600001802100e140780060c4b300af
:10431c0080cf500097ff340011c480001e0078003d
:10432c0080804000f00720000080600001802100a8
:10433c00e140780000c6b30080cf50005700340035
:10434c0011c480001e00780080804000f00720001f
:10435c000080600001802100e140780060c6b3005d
:10436c0080cf500083ff34005300370011c480000d
:10437c001e00780080804000f00720000080600064
:10438c0001802100e1407800f0c2b30080cf5000e2
:10439c004400340011c480001e007800808040006e
:1043ac00f00720000080600001802100e1407800cf
:1043bc0090c3b30080cf50003c003c0011c480007f
:1043cc001e00780080804000f00720000080600014
:1043dc0001802100614078000000fb000003b10067
:1043ec0010079800110037001e0090006a00b900f9
:1043fc00000078001007980011c480001e0078009f
:10440c0080804000f00720000080600001802100c7
:10441c00614078000000fb000003b1009e0090009a
:10442c0000804000100798001e0fe80011c48000a7
:10443c001e00780080804000f007200000806000a3
:10444c0001802100e1407800f0c2b30080cf500021
:10445c001800340011c480001e00780080804000d9
:10446c00f00720000080600001802100e14078000e
:10447c0090c3b30080cf5000dbff34000e00370038
:10448c004088210011c0b300014878000000eb0007
:10449c001200370000000000070037000000000089
:1044ac00050037000000000003003700000000008a
:1044bc00010037000000000011c480001e007800cd
:1044cc000080400010c4880011c48000f007200058
:1044dc000080600010c488001e0090000080fa006c
:1044ec00000006000200fa0010c480008000e80002
:1044fc00f00720000080600001802100e14078007e
:10450c00a0c3b30080cf500012003a0010c480004a
:10451c000080e80010c4880011c48000f00720005f
:10452c000080600010c488006bfe0700000f78004c
:10453c0010c480000000e90010c4880011c4800081
:10454c00f00720000080600010c488001e00780076
:10455c0001003700100020000080fa000000060067
:10456c000200fa0010c480008000e800f007200070
:10457c000080600001802100e1407800b0c3b300ee
:10458c0080cf50000e003a0010c480008080e800fc
:10459c00f00720000080600010c488004efe070069
:1045ac00000f780010c480008000e900f0072000a4
:1045bc000080600010c488001e00780001003700e5
:1045cc000000eb000080fa00000006000000fa007a
:1045dc0010c480008000e800f0072000008060001c
:1045ec0001802100e140780080c7b30080cf5000eb
:1045fc0007003a0010c480008000e800f00720009b
:10460c000080600010c4880010c0b3003100370077
:10461c0010c480008000e800f007200000806000db
:10462c0001802100e140780040c6b30080cf5000eb
:10463c0007003a0010c480008000e800f00720005a
:10464c000080600010c4880020c0b3002100370037
:10465c0010c480008000e800f0072000008060009b
:10466c0001802100e140780020c6b30080cf5000cb
:10467c0007003a0010c480008000e800f00720001a
:10468c000080600010c4880030c0b30011003700f7
:10469c0010c480008000e800f0072000008060005b
:1046ac0001802100e140780070c7b30080cf50003a
:1046bc0007003a0010c480008000e800f0072000da
:1046cc000080600010c4880040c0b30001003700b7
:1046dc000040eb000080fa00000006000000fa0029
:1046ec000500370010c480008000e800f0072000af
:1046fc000080600010c4880010c48000018021007c
:10470c00e140780000c2b30080cf5000f5ff3200ca
:10471c000080fa00000006000400fa000000eb0024
:10472c001007980010c480008000e800f0072000fb
:10473c000080600010c48800e8ff0700e6fd070059
:10474c00100798001e0090000000e00058003a008e
:10475c000000eb00000f7800130037001e007800fb
:10476c00004078000040e800847002000000000067
:10477c0090992800f26d0200000000009e00780065
:10478c00000320000088b90000007800810220009e
:10479c0080804000008d210000804000166e0200d9
:1047ac00000000001e0fe8001e007800e30f500010
:1047bc00eaff340071012000606d2000be8c020005
:1047cc0000000000408821008040eb000148780088
:1047dc0013002000420020001100200010002000d7
:1047ec00030107000000e900100798001e0090006c
:1047fc00e20f4000030032001e009000e10f400069
:10480c0005003a00e1002000d06e2000be8c0200b2
:10481c000000000050003700b1cf800000032000e2
:10482c000088b90000007800210220008080400040
:10483c00008d210000804000100078000000010075
:10484c00128a0200000000001e009000b0cf880009
:10485c00b1cf8000000320000088b9000000780070
:10486c00fe004000008d2100008040001000780008
:10487c000000010000982800166e020000000000e5
:10488c001e0090000000e00004003200c222a800cc
:10489c00c0992800166e0200000000005100200094
:1048ac0050572000be8c0200000000002a00370088
:1048bc001e0090000000e900100798001e009000f8
:1048cc00e30f500020003c00b1cf8000000320001b
:1048dc000088b90000007800210220008080400090
:1048ec00008d2100008040001000780000000100c5
:1048fc00128a0200000000001e009000b0cf880059
:10490c00b1cf8000000320000088b90000007800bf
:10491c00fe004000008d2100008040001000780057
:10492c00000001001e0090000000e00001003200b9
:10493c00c222a8005100200050572000be8c02005b
:10494c00000000000400370051012000c07220005c
:10495c00be8c02000000000000c480008000e90052
:10496c00f00720000080600010c488000080fa006e
:10497c00000006001400fa0010002000000f780060
:10498c0010c480000000e90080007800f0072000cf
:10499c000080600010079800420037000180210061
:1049ac001e00900000804000104078000004e000e1
:1049bc0037003a001e0090008000e800f00720004d
:1049cc000080600001802100614078000004e0005c
:1049dc002f0032001e007800004078008470020026
:1049ec000000000090992800f26d02000000000009
:1049fc0010002000200798000c0037009e0090004b
:104a0c002e00900080804000f007200000806000a5
:104a1c0001802100614078002c730200000000002e
:104a2c002e0090000000e800200798009e009000e7
:104a3c002e00900080804000f00720000080600075
:104a4c0001802100614078000004e000ebff3a0097
:104a5c001e0090008000e800f007200080806000bd
:104a6c001e00780000004000000047006600400077
:104a7c00010878001e0fe8001e007800e70f5000b8
:104a8c000d00320010922800166e0200000000008b
:104a9c001e0090008000e900f007200000806000fc
:104aac00100798009e00900010c48000808f50006a
:104abc00baff3a000100370000000000c09d28003a
:104acc00166e02000000000071002000107420001f
:104adc00be8c020000000000130020001e017800b4
:104aec00110020000000eb004100070010079800a7
:104afc001e009000e10f4000030032001e009000e9
:104b0c000000e00005003a0010922800166e02002a
:104b1c000000000010002000330037000000eb0004
:104b2c00000f78001100370001c480001e007800cf
:104b3c0080804000f0072000808060001e00900004
:104b4c000000400000004700300090001e014000b3
:104b5c00f007200000006100028021006241780013
:104b6c000080210002f078001e0fe8001e0090006b
:104b7c000000400000004700300090009e00400004
:104b8c00f007200000806000018021006140780067
:104b9c000004e000e4ff3a0000c480008000e9005b
:104bac00f00720000080600010c4880011c4800051
:104bbc001e007800008040008080e800f007200094
:104bcc000080600000c4880000c480008000e90000
:104bdc00f007200000806000018021000041eb0004
:104bec00827078000000eb000080fa0000000600e4
:104bfc001a00fa00100f9800210f9800320f98003d
:104c0c00430f98000000eb00000f78000000eb0051
:104c1c00100798000000eb00200798000000eb0044
:104c2c0030079800e09d2800f26d020000000000a3
:104c3c001e0890000000e00004003d00209e2800ab
:104c4c00f26d020000000000040037001e08900006
:104c5c00004078008470020000000000409e280094
:104c6c00f26d0200000000005c00370006730200c9
:104c7c0000000000004f98000e4890000000fb0060
:104c8c00ed0f500023003200ed0f500005003c00ea
:104c9c00e80f50000a003200ea0f50001d003200ed
:104cac0031003700d1022000810f50001c0032006f
:104cbc0081072000810f5000260032002a003700a7
:104ccc001e0078000000e000050032001e0fe90015
:104cdc0080902800f26d0200000000003f003700b9
:104cec003e0090000000e000060032000000eb00e7
:104cfc003007980080902800f26d02000000000040
:104d0c003600370070c0b3002c73020000000000a6
:104d1c003200370010002000100798002f003700d9
:104d2c001e0078000000e00006003a00d0c2b3007c
:104d3c002c730200000000001000200030079800c7
:104d4c002600370070c0b3002c7302000000000076
:104d5c00220037004e0890000000e00002003200f4
:104d6c000080eb00540037008e489000f0c2b30076
:104d7c0080cf5000160034008e48900090c3b300d2
:104d8c0080cf500012003c001e007800e30f500052
:104d9c000600340070c0b3002c7302000000000049
:104dac0040002000000f78000c0037000e489000e7
:104dbc002c730200000000006c0047001e00400035
:104dcc008e489000014878001e0fe8000300370061
:104ddc0070c0b3002c730200000000001e00900095
:104dec000000e000a1ff320010922800166e0200b5
:104dfc00000000001e0078000000e00002003a00f5
:104e0c001e0890002c0037000000eb0020079800d3
:104e1c001e0fe9009e007800510798000e00370025
:104e2c002e0090006a00b90000007800200798005e
:104e3c005e0090001e0050000000470040489000ab
:104e4c000000fb000003b100ae00900000804000a9
:104e5c00200798001e0fe9001e0078000000e000fb
:104e6c00efff3d00ae0090002e089000808f5000a8
:104e7c000c003500ae0090003e089000808f500072
:104e8c0008003c003e0090000000e00003003200ef
:104e9c002e0090000000ea00070037002e00900062
:104eac0005003700b101200080ec2000be8c020010
:104ebc000000000053ff37000080fa0000000600dd
:104ecc000200fa00709e2800f26d02000000000043
:104edc00e0c2b3002c73020000000000c09f210050
:104eec00104078002c73020000000000c1cf80003d
:104efc00f0442000808f500003003a00509f28009f
:104f0c00f26d02000000000010922800166e0200e4
:104f1c0000000000c0a02800f26d0200000000009c
:104f2c00b0c5b3002c730200000000000000eb00c1
:104f3c00000f7800110037001e0078000000e00020
:104f4c000300320000c2b3002c730200000000000a
:104f5c009e007800000320000088b9000000780053
:104f6c008102200080804000008d210000804000e4
:104f7c00f26d0200000000001e0fe8001e00780019
:104f8c00e30f5000ecff3600d0c5b3002c730200c9
:104f9c0000000000d1002000a0802000328c020014
:104fac0000000000a1bf2a000000eb00d471020039
:104fbc0000000000000f78001e0078004800de00a2
:104fcc00004078008470020000000000e0c2b300d2
:104fdc002c730200000000001e00780000407800d6
:104fec00847002000000000010922800166e02006f
:104ffc00000000006100200030762000328c02009e
:10500c0000000000c0cf80003e71020000000000d4
:10501c007100200010ec2000328c02000000000017
:10502c00d0cf80003e7102000000000050a3280089
:10503c00f26d020000000000c1cf8000f04420009f
:10504c00808f500004003a0020a42800f26d02006a
:10505c00000000000300370050a42800f26d02008d
:10506c0000000000d0cf800021042300810f5000ed
:10507c001200320021042300810f500004003e0076
:10508c0031002300810f5000080032001700370058
:10509c0031042300810f50000c0032006104230006
:1050ac00810f50000d0032001000370080a4280042
:1050bc00f26d02000000000010003700b0a42800c0
:1050cc00f26d0200000000000c003700e0a4280084
:1050dc00f26d0200000000000800370010a5280047
:1050ec00f26d0200000000000400370040a528000b
:1050fc00f26d0200000000000000000080a52800f6
:10510c00166e020000000000e101200090762000e5
:10511c00be8c0200000000000000eb00000f7800c5
:10512c000080fa00000006000000fa005100200088
:10513c0050922000328c020000000000c1bf2a00f7
:10514c000000eb00d4710200000000003e71020070
:10515c000000000061002000a0922000328c0200b0
:10516c0000000000e1bf2a000000eb00d471020037
:10517c00000000003e7102000000000010922800a8
:10518c00166e020000000000c100200070782000a4
:10519c00be8c020000000000720007001016800098
:1051ac00610060000000e0000500320011012000e9
:1051bc00a0622000328c02000000000004003700c6
:1051cc0021012000b0632000328c0200000000009e
:1051dc00c0c2b3002c7302000000000000c2b30078
:1051ec002c7302000000000051168000008020008b
:1051fc00008060000000e00005003200410120004a
:10520c00705d2000328c02000000000004003700aa
:10521c0051012000205c2000328c020000000000b4
:10522c00c0c2b3002c7302000000000000c2b30027
:10523c002c73020000000000809c210010407800bc
:10524c00704060000004e0000500320021022000e4
:10525c0030792000be8c02000000000004003700f2
:10526c00e1012000507b2000be8c020000000000f9
:10527c00809c210010407800684060000004e00031
:10528c0005003a00b1012000307d2000328c020074
:10529c000000000004003700c1012000e07e200067
:1052ac00328c020000000000c0c2b3002c7302005c
:1052bc000000000000c2b3002c73020000000000cc
:1052cc00b1012000b01a2100328c02000000000055
:1052dc00709b2100104078008470020000000000d8
:1052ec0010922800166e020000000000809c210025
:1052fc001040780063406000e14f500005003a0018
:10530c005101200000592000be8c0200000000005a
:10531c000400370061012000a0572000be8c020061
:10532c0000000000b1cf8000000320000088b9000d
:10533c00000078006102200080804000008d210078
:10534c00008040001000780000000100c100200027
:10535c0070782000be8c0200000000000080fa0073
:10536c00000006000000fa00a10020004007210008
:10537c00be8c02000000000061042000c00c210063
:10538c00be8c020000000000a1012000e0072100fb
:10539c00328c020000000000b1cf8000000320001e
:1053ac000088b90000007800410220008080400095
:1053bc00008d2100008040001000780000000100ea
:1053cc00a100200080092100328c020000000000a6
:1053dc000040200050000700001020004e00070085
:1053ec00002020004c000700000420004a000700a9
:1053fc00000820004800070010922800166e0200da
:10540c00000000004100200020112100328c02001d
:10541c000000000021e3a800a0002000568a020032
:10542c00000000008271020000000000110020004a
:10543c00b0372000328c02000000000090c0b30096
:10544c002c7302000000000090002000568a02001d
:10545c00000000008271020000000000110020001a
:10546c00b0372000328c02000000000090c0b30066
:10547c002c73020000000000c0002000568a0200bd
:10548c0000000000827102000000000011002000ea
:10549c00b0372000328c02000000000090c0b30036
:1054ac002c73020000000000b0002000568a02009d
:1054bc0000000000827102000000000011002000ba
:1054cc00b0372000328c02000000000090c0b30006
:1054dc002c7302000000000021e3a9000040200012
:1054ec001c000700001020001a00070000202000fc
:1054fc001800070000042000160007000008200018
:10550c001400070010922800166e02000000000024
:10551c000080fa00000006000200fa00000f78007c
:10552c00401680001e0060000000e0000400320005
:10553c00a0a52800f26d0200000000000300370057
:10554c00d0a52800f26d0200000000000080fa00d7
:10555c00000006000200fa00000f780050168000d0
:10556c001e0060000000e0000400320000a62800cd
:10557c00f26d0200000000000300370030a6280086
:10558c00f26d0200000000000080fa00000006002e
:10559c000200fa0010c480008000e800f007200030
:1055ac000080600010c488004cfc07004afa070019
:1055bc00000f78001e0078000000e00006003400a8
:1055cc001e007800e40f500003003c001e00e900b0
:1055dc00a0cf88000e003700408821008040eb00ef
:1055ec00014878002102200070812000be8c02004e
:1055fc00000000008001eb004200200011002000a0
:10560c00100020007afd07000000e900a0cf880000
:10561c002101200090832000be8c020000000000bd
:10562c000080fa00000006000200fa000040eb00c7
:10563c00004f780010c480008000e800f0072000c4
:10564c000080600010c4880024fc070022fa0700c8
:10565c00104798001e4090000004e0000800320043
:10566c001e409000ea4f500005003e001e40900086
